{
	"data": {
		"bytecode": {
			"linkReferences": {},
			"object": "6080604052348015600e575f5ffd5b503360015f6101000a81548173ffffffffffffffffffffffffffffffffffffffff021916908373ffffffffffffffffffffffffffffffffffffffff1602179055505f5f5f3373ffffffffffffffffffffffffffffffffffffffff1673ffffffffffffffffffffffffffffffffffffffff1681526020019081526020015f205f6101000a81548160ff0219169083600381111560aa5760a960b3565b5b021790555060e0565b7f4e487b71000000000000000000000000000000000000000000000000000000005f52602160045260245ffd5b6136d4806100ed5f395ff3fe608060405234801561000f575f5ffd5b50600436106100f3575f3560e01c806380e52e3f116100955780639937464211610064578063993746421461026a578063c0a6dda31461029a578063d4f50453146102b6578063f851a440146102e6576100f3565b806380e52e3f146101fa578063842af60d1461021657806387592bce1461023257806396ed61071461024e576100f3565b806357d8894f116100d157806357d8894f1461015f578063630a195b1461018f5780636b696666146101ab5780636d136f62146101de576100f3565b80630c2094cc146100f75780632fdccd0b146101135780634c8dbcb91461012f575b5f5ffd5b610111600480360381019061010c91906125f0565b610304565b005b61012d6004803603810190610128919061264d565b610595565b005b61014960048036038101906101449190612803565b610857565b6040516101569190612859565b60405180910390f35b61017960048036038101906101749190612872565b61089f565b60405161018691906128e6565b60405180910390f35b6101a960048036038101906101a49190612922565b6108e1565b005b6101c560048036038101906101c09190612960565b6109d7565b6040516101d59493929190612ac4565b60405180910390f35b6101f860048036038101906101f39190612960565b610b98565b005b610214600480360381019061020f9190612b0e565b610fd6565b005b610230600480360381019061022b91906125f0565b6110cb565b005b61024c6004803603810190610247919061264d565b6114bc565b005b610268600480360381019061026391906125f0565b61193b565b005b610284600480360381019061027f9190612b0e565b611bcb565b6040516102919190612b39565b60405180910390f35b6102b460048036038101906102af9190612960565b611be7565b005b6102d060048036038101906102cb9190612960565b611efa565b6040516102dd9190612ce3565b60405180910390f35b6102ee612251565b6040516102fb9190612859565b60405180910390f35b82828080601f0160208091040260200160405190810160405280939291908181526020018383808284375f81840152601f19601f820116905080830192505050505050506002816040516103589190612d3d565b90815260200160405180910390206003015f9054906101000a900460ff166103b5576040517f08c379a00000000000000000000000000000000000000000000000000000000081526004016103ac90612d9d565b60405180910390fd5b5f600285856040516103c8929190612ddf565b9081526020016040518091039020905060015f9054906101000a900473ffffffffffffffffffffffffffffffffffffffff1673ffffffffffffffffffffffffffffffffffffffff163373ffffffffffffffffffffffffffffffffffffffff1614806104815750806001015f9054906101000a900473ffffffffffffffffffffffffffffffffffffffff1673ffffffffffffffffffffffffffffffffffffffff163373ffffffffffffffffffffffffffffffffffffffff16145b6104c0576040517f08c379a00000000000000000000000000000000000000000000000000000000081526004016104b790612e41565b60405180910390fd5b6001600486866040516104d4929190612ddf565b90815260200160405180910390205f8573ffffffffffffffffffffffffffffffffffffffff1673ffffffffffffffffffffffffffffffffffffffff1681526020019081526020015f205f6101000a81548160ff0219169083151502179055508273ffffffffffffffffffffffffffffffffffffffff16858560405161055a929190612ddf565b60405180910390207f780f596ecb91e1e030f57631a828b4c1f227615c1e11422248348930f6d2160c60405160405180910390a35050505050565b83838080601f0160208091040260200160405190810160405280939291908181526020018383808284375f81840152601f19601f820116905080830192505050505050506002816040516105e99190612d3d565b90815260200160405180910390206003015f9054906101000a900460ff16610646576040517f08c379a000000000000000000000000000000000000000000000000000000000815260040161063d90612d9d565b60405180910390fd5b5f60028686604051610659929190612ddf565b90815260200160405180910390209050806001015f9054906101000a900473ffffffffffffffffffffffffffffffffffffffff1673ffffffffffffffffffffffffffffffffffffffff163373ffffffffffffffffffffffffffffffffffffffff16146106fa576040517f08c379a00000000000000000000000000000000000000000000000000000000081526004016106f190612ea9565b60405180910390fd5b8060020160405180608001604052804281526020013373ffffffffffffffffffffffffffffffffffffffff1681526020016040518060400160405280600481526020017f4e6f746500000000000000000000000000000000000000000000000000000000815250815260200186868080601f0160208091040260200160405190810160405280939291908181526020018383808284375f81840152601f19601f82011690508083019250505050505050815250908060018154018082558091505060019003905f5260205f2090600402015f909190919091505f820151815f01556020820151816001015f6101000a81548173ffffffffffffffffffffffffffffffffffffffff021916908373ffffffffffffffffffffffffffffffffffffffff160217905550604082015181600201908161083691906130c4565b50606082015181600301908161084c91906130c4565b505050505050505050565b6003818051602081018201805184825260208301602085012081835280955050505050505f915054906101000a900473ffffffffffffffffffffffffffffffffffffffff1681565b600482805160208101820180518482526020830160208501208183528095505050505050602052805f5260405f205f915091509054906101000a900460ff1681565b60015f9054906101000a900473ffffffffffffffffffffffffffffffffffffffff1673ffffffffffffffffffffffffffffffffffffffff163373ffffffffffffffffffffffffffffffffffffffff1614610970576040517f08c379a0000000000000000000000000000000000000000000000000000000008152600401610967906131dd565b60405180910390fd5b805f5f8473ffffffffffffffffffffffffffffffffffffffff1673ffffffffffffffffffffffffffffffffffffffff1681526020019081526020015f205f6101000a81548160ff021916908360038111156109ce576109cd612a0b565b5b02179055505050565b60605f5f5f85858080601f0160208091040260200160405190810160405280939291908181526020018383808284375f81840152601f19601f82011690508083019250505050505050600281604051610a309190612d3d565b90815260200160405180910390206003015f9054906101000a900460ff16610a8d576040517f08c379a0000000000000000000000000000000000000000000000000000000008152600401610a8490612d9d565b60405180910390fd5b5f60028888604051610aa0929190612ddf565b90815260200160405180910390209050805f01816001015f9054906101000a900473ffffffffffffffffffffffffffffffffffffffff168260010160149054906101000a900460ff168360010160159054906101000a900460ff16838054610b0790612ef4565b80601f0160208091040260200160405190810160405280929190818152602001828054610b3390612ef4565b8015610b7e5780601f10610b5557610100808354040283529160200191610b7e565b820191905f5260205f20905b815481529060010190602001808311610b6157829003601f168201915b505050505093509550955095509550505092959194509250565b81818080601f0160208091040260200160405190810160405280939291908181526020018383808284375f81840152601f19601f82011690508083019250505050505050600281604051610bec9190612d3d565b90815260200160405180910390206003015f9054906101000a900460ff16610c49576040517f08c379a0000000000000000000000000000000000000000000000000000000008152600401610c4090612d9d565b60405180910390fd5b3373ffffffffffffffffffffffffffffffffffffffff1660038484604051610c72929190612ddf565b90815260200160405180910390205f9054906101000a900473ffffffffffffffffffffffffffffffffffffffff1673ffffffffffffffffffffffffffffffffffffffff1614610cf6576040517f08c379a0000000000000000000000000000000000000000000000000000000008152600401610ced90613245565b60405180910390fd5b5f60028484604051610d09929190612ddf565b908152602001604051809103902090505f816001015f9054906101000a900473ffffffffffffffffffffffffffffffffffffffff16905033826001015f6101000a81548173ffffffffffffffffffffffffffffffffffffffff021916908373ffffffffffffffffffffffffffffffffffffffff1602179055505f5f3373ffffffffffffffffffffffffffffffffffffffff1673ffffffffffffffffffffffffffffffffffffffff1681526020019081526020015f205f9054906101000a900460ff168260010160146101000a81548160ff02191690836003811115610df157610df0612a0b565b5b02179055508160020160405180608001604052804281526020013373ffffffffffffffffffffffffffffffffffffffff1681526020016040518060400160405280601081526020017f5472616e73666572416363657074656400000000000000000000000000000000815250815260200160405180602001604052805f815250815250908060018154018082558091505060019003905f5260205f2090600402015f909190919091505f820151815f01556020820151816001015f6101000a81548173ffffffffffffffffffffffffffffffffffffffff021916908373ffffffffffffffffffffffffffffffffffffffff1602179055506040820151816002019081610efd91906130c4565b506060820151816003019081610f1391906130c4565b5050505f60038686604051610f29929190612ddf565b90815260200160405180910390205f6101000a81548173ffffffffffffffffffffffffffffffffffffffff021916908373ffffffffffffffffffffffffffffffffffffffff1602179055503373ffffffffffffffffffffffffffffffffffffffff168585604051610f9b929190612ddf565b60405180910390207f77f9b14bccb831f84bd283a53852b3ca219a25802484df3143b211729af0cc8360405160405180910390a35050505050565b60015f9054906101000a900473ffffffffffffffffffffffffffffffffffffffff1673ffffffffffffffffffffffffffffffffffffffff163373ffffffffffffffffffffffffffffffffffffffff1614611065576040517f08c379a000000000000000000000000000000000000000000000000000000000815260040161105c906131dd565b60405180910390fd5b5f5f5f8373ffffffffffffffffffffffffffffffffffffffff1673ffffffffffffffffffffffffffffffffffffffff1681526020019081526020015f205f6101000a81548160ff021916908360038111156110c3576110c2612a0b565b5b021790555050565b82828080601f0160208091040260200160405190810160405280939291908181526020018383808284375f81840152601f19601f8201169050808301925050505050505060028160405161111f9190612d3d565b90815260200160405180910390206003015f9054906101000a900460ff1661117c576040517f08c379a000000000000000000000000000000000000000000000000000000000815260040161117390612d9d565b60405180910390fd5b5f6002858560405161118f929190612ddf565b90815260200160405180910390209050806001015f9054906101000a900473ffffffffffffffffffffffffffffffffffffffff1673ffffffffffffffffffffffffffffffffffffffff163373ffffffffffffffffffffffffffffffffffffffff1614611230576040517f08c379a0000000000000000000000000000000000000000000000000000000008152600401611227906132ad565b60405180910390fd5b5f73ffffffffffffffffffffffffffffffffffffffff168373ffffffffffffffffffffffffffffffffffffffff160361129e576040517f08c379a000000000000000000000000000000000000000000000000000000000815260040161129590613315565b60405180910390fd5b82600386866040516112b1929190612ddf565b90815260200160405180910390205f6101000a81548173ffffffffffffffffffffffffffffffffffffffff021916908373ffffffffffffffffffffffffffffffffffffffff1602179055508060020160405180608001604052804281526020013373ffffffffffffffffffffffffffffffffffffffff1681526020016040518060400160405280601181526020017f5472616e73666572496e69746961746564000000000000000000000000000000815250815260200161137186612276565b815250908060018154018082558091505060019003905f5260205f2090600402015f909190919091505f820151815f01556020820151816001015f6101000a81548173ffffffffffffffffffffffffffffffffffffffff021916908373ffffffffffffffffffffffffffffffffffffffff16021790555060408201518160020190816113fd91906130c4565b50606082015181600301908161141391906130c4565b50505060018160010160156101000a81548160ff0219169083600281111561143e5761143d612a0b565b5b02179055508273ffffffffffffffffffffffffffffffffffffffff163373ffffffffffffffffffffffffffffffffffffffff168686604051611481929190612ddf565b60405180910390207fcacc282346753d2f375de14b9b4b6ac468ffc411065cec53fe7318de3130b0a960405160405180910390a45050505050565b60018060038111156114d1576114d0612a0b565b5b5f5f3373ffffffffffffffffffffffffffffffffffffffff1673ffffffffffffffffffffffffffffffffffffffff1681526020019081526020015f205f9054906101000a900460ff16600381111561152c5761152b612a0b565b5b1461156c576040517f08c379a00000000000000000000000000000000000000000000000000000000081526004016115639061337d565b60405180910390fd5b6002858560405161157e929190612ddf565b90815260200160405180910390206003015f9054906101000a900460ff16156115dc576040517f08c379a00000000000000000000000000000000000000000000000000000000081526004016115d3906133e5565b60405180910390fd5b5f600286866040516115ef929190612ddf565b908152602001604051809103902090508585825f01918261161192919061340d565b5033816001015f6101000a81548173ffffffffffffffffffffffffffffffffffffffff021916908373ffffffffffffffffffffffffffffffffffffffff1602179055505f5f3373ffffffffffffffffffffffffffffffffffffffff1673ffffffffffffffffffffffffffffffffffffffff1681526020019081526020015f205f9054906101000a900460ff168160010160146101000a81548160ff021916908360038111156116c3576116c2612a0b565b5b02179055505f8160010160156101000a81548160ff021916908360028111156116ef576116ee612a0b565b5b02179055506001816003015f6101000a81548160ff0219169083151502179055508060020160405180608001604052804281526020013373ffffffffffffffffffffffffffffffffffffffff1681526020016040518060400160405280600781526020017f4372656174656400000000000000000000000000000000000000000000000000815250815260200186868080601f0160208091040260200160405190810160405280939291908181526020018383808284375f81840152601f19601f82011690508083019250505050505050815250908060018154018082558091505060019003905f5260205f2090600402015f909190919091505f820151815f01556020820151816001015f6101000a81548173ffffffffffffffffffffffffffffffffffffffff021916908373ffffffffffffffffffffffffffffffffffffffff160217905550604082015181600201908161184c91906130c4565b50606082015181600301908161186291906130c4565b505050600160048787604051611879929190612ddf565b90815260200160405180910390205f3373ffffffffffffffffffffffffffffffffffffffff1673ffffffffffffffffffffffffffffffffffffffff1681526020019081526020015f205f6101000a81548160ff0219169083151502179055503373ffffffffffffffffffffffffffffffffffffffff1686866040516118ff929190612ddf565b60405180910390207f6276b46249f3ef9f8582903c6f0d43109febb82b3ec9f4dbd15662bb71ec9c7b60405160405180910390a3505050505050565b82828080601f0160208091040260200160405190810160405280939291908181526020018383808284375f81840152601f19601f8201169050808301925050505050505060028160405161198f9190612d3d565b90815260200160405180910390206003015f9054906101000a900460ff166119ec576040517f08c379a00000000000000000000000000000000000000000000000000000000081526004016119e390612d9d565b60405180910390fd5b5f600285856040516119ff929190612ddf565b9081526020016040518091039020905060015f9054906101000a900473ffffffffffffffffffffffffffffffffffffffff1673ffffffffffffffffffffffffffffffffffffffff163373ffffffffffffffffffffffffffffffffffffffff161480611ab85750806001015f9054906101000a900473ffffffffffffffffffffffffffffffffffffffff1673ffffffffffffffffffffffffffffffffffffffff163373ffffffffffffffffffffffffffffffffffffffff16145b611af7576040517f08c379a0000000000000000000000000000000000000000000000000000000008152600401611aee90612e41565b60405180910390fd5b5f60048686604051611b0a929190612ddf565b90815260200160405180910390205f8573ffffffffffffffffffffffffffffffffffffffff1673ffffffffffffffffffffffffffffffffffffffff1681526020019081526020015f205f6101000a81548160ff0219169083151502179055508273ffffffffffffffffffffffffffffffffffffffff168585604051611b90929190612ddf565b60405180910390207fa4056635223780a71518e8c10b6fc0fd195775c8375c4841c124a959ae5c30ad60405160405180910390a35050505050565b5f602052805f5260405f205f915054906101000a900460ff1681565b81818080601f0160208091040260200160405190810160405280939291908181526020018383808284375f81840152601f19601f82011690508083019250505050505050600281604051611c3b9190612d3d565b90815260200160405180910390206003015f9054906101000a900460ff16611c98576040517f08c379a0000000000000000000000000000000000000000000000000000000008152600401611c8f90612d9d565b60405180910390fd5b5f60028484604051611cab929190612ddf565b90815260200160405180910390209050806001015f9054906101000a900473ffffffffffffffffffffffffffffffffffffffff1673ffffffffffffffffffffffffffffffffffffffff163373ffffffffffffffffffffffffffffffffffffffff1614611d4c576040517f08c379a0000000000000000000000000000000000000000000000000000000008152600401611d4390613524565b60405180910390fd5b60028160010160156101000a81548160ff02191690836002811115611d7457611d73612a0b565b5b02179055508060020160405180608001604052804281526020013373ffffffffffffffffffffffffffffffffffffffff1681526020016040518060400160405280600881526020017f5265636569766564000000000000000000000000000000000000000000000000815250815260200160405180602001604052805f815250815250908060018154018082558091505060019003905f5260205f2090600402015f909190919091505f820151815f01556020820151816001015f6101000a81548173ffffffffffffffffffffffffffffffffffffffff021916908373ffffffffffffffffffffffffffffffffffffffff1602179055506040820151816002019081611e8091906130c4565b506060820151816003019081611e9691906130c4565b5050503373ffffffffffffffffffffffffffffffffffffffff168484604051611ec0929190612ddf565b60405180910390207ffb273a0b6c793900388a152d77f03c4569d38cb019a682cb1cfd4ea795f9379760405160405180910390a350505050565b606082828080601f0160208091040260200160405190810160405280939291908181526020018383808284375f81840152601f19601f82011690508083019250505050505050600281604051611f509190612d3d565b90815260200160405180910390206003015f9054906101000a900460ff16611fad576040517f08c379a0000000000000000000000000000000000000000000000000000000008152600401611fa490612d9d565b60405180910390fd5b60048484604051611fbf929190612ddf565b90815260200160405180910390205f3373ffffffffffffffffffffffffffffffffffffffff1673ffffffffffffffffffffffffffffffffffffffff1681526020019081526020015f205f9054906101000a900460ff16612054576040517f08c379a000000000000000000000000000000000000000000000000000000000815260040161204b906135b2565b60405180910390fd5b60028484604051612066929190612ddf565b9081526020016040518091039020600201805480602002602001604051908101604052809291908181526020015f905b82821015612244578382905f5260205f2090600402016040518060800160405290815f8201548152602001600182015f9054906101000a900473ffffffffffffffffffffffffffffffffffffffff1673ffffffffffffffffffffffffffffffffffffffff1673ffffffffffffffffffffffffffffffffffffffff16815260200160028201805461212590612ef4565b80601f016020809104026020016040519081016040528092919081815260200182805461215190612ef4565b801561219c5780601f106121735761010080835404028352916020019161219c565b820191905f5260205f20905b81548152906001019060200180831161217f57829003601f168201915b505050505081526020016003820180546121b590612ef4565b80601f01602080910402602001604051908101604052809291908181526020018280546121e190612ef4565b801561222c5780601f106122035761010080835404028352916020019161222c565b820191905f5260205f20905b81548152906001019060200180831161220f57829003601f168201915b50505050508152505081526020019060010190612096565b5050505091505092915050565b60015f9054906101000a900473ffffffffffffffffffffffffffffffffffffffff1681565b60605f8260601b90505f7f303132333435363738396162636465660000000000000000000000000000000090505f602a67ffffffffffffffff8111156122bf576122be6126df565b5b6040519080825280601f01601f1916602001820160405280156122f15781602001600182028036833780820191505090505b5090507f3000000000000000000000000000000000000000000000000000000000000000815f81518110612328576123276135d0565b5b60200101907effffffffffffffffffffffffffffffffffffffffffffffffffffffffffffff191690815f1a9053507f78000000000000000000000000000000000000000000000000000000000000008160018151811061238b5761238a6135d0565b5b60200101907effffffffffffffffffffffffffffffffffffffffffffffffffffffffffffff191690815f1a9053505f5f90505b6014811015612518578260048583601481106123dd576123dc6135d0565b5b1a60f81b7effffffffffffffffffffffffffffffffffffffffffffffffffffffffffffff1916901c60f81c60ff166010811061241c5761241b6135d0565b5b1a60f81b8260028361242e919061362a565b600261243a919061366b565b8151811061244b5761244a6135d0565b5b60200101907effffffffffffffffffffffffffffffffffffffffffffffffffffffffffffff191690815f1a90535082600f60f81b858360148110612492576124916135d0565b5b1a60f81b1660f81c60ff16601081106124ae576124ad6135d0565b5b1a60f81b826002836124c0919061362a565b60036124cc919061366b565b815181106124dd576124dc6135d0565b5b60200101907effffffffffffffffffffffffffffffffffffffffffffffffffffffffffffff191690815f1a90535080806001019150506123be565b50809350505050919050565b5f604051905090565b5f5ffd5b5f5ffd5b5f5ffd5b5f5ffd5b5f5ffd5b5f5f83601f84011261255657612555612535565b5b8235905067ffffffffffffffff81111561257357612572612539565b5b60208301915083600182028301111561258f5761258e61253d565b5b9250929050565b5f73ffffffffffffffffffffffffffffffffffffffff82169050919050565b5f6125bf82612596565b9050919050565b6125cf816125b5565b81146125d9575f5ffd5b50565b5f813590506125ea816125c6565b92915050565b5f5f5f604084860312156126075761260661252d565b5b5f84013567ffffffffffffffff81111561262457612623612531565b5b61263086828701612541565b93509350506020612643868287016125dc565b9150509250925092565b5f5f5f5f604085870312156126655761266461252d565b5b5f85013567ffffffffffffffff81111561268257612681612531565b5b61268e87828801612541565b9450945050602085013567ffffffffffffffff8111156126b1576126b0612531565b5b6126bd87828801612541565b925092505092959194509250565b5f5ffd5b5f601f19601f8301169050919050565b7f4e487b71000000000000000000000000000000000000000000000000000000005f52604160045260245ffd5b612715826126cf565b810181811067ffffffffffffffff82111715612734576127336126df565b5b80604052505050565b5f612746612524565b9050612752828261270c565b919050565b5f67ffffffffffffffff821115612771576127706126df565b5b61277a826126cf565b9050602081019050919050565b828183375f83830152505050565b5f6127a76127a284612757565b61273d565b9050828152602081018484840111156127c3576127c26126cb565b5b6127ce848285612787565b509392505050565b5f82601f8301126127ea576127e9612535565b5b81356127fa848260208601612795565b91505092915050565b5f602082840312156128185761281761252d565b5b5f82013567ffffffffffffffff81111561283557612834612531565b5b612841848285016127d6565b91505092915050565b612853816125b5565b82525050565b5f60208201905061286c5f83018461284a565b92915050565b5f5f604083850312156128885761288761252d565b5b5f83013567ffffffffffffffff8111156128a5576128a4612531565b5b6128b1858286016127d6565b92505060206128c2858286016125dc565b9150509250929050565b5f8115159050919050565b6128e0816128cc565b82525050565b5f6020820190506128f95f8301846128d7565b92915050565b6004811061290b575f5ffd5b50565b5f8135905061291c816128ff565b92915050565b5f5f604083850312156129385761293761252d565b5b5f612945858286016125dc565b92505060206129568582860161290e565b9150509250929050565b5f5f602083850312156129765761297561252d565b5b5f83013567ffffffffffffffff81111561299357612992612531565b5b61299f85828601612541565b92509250509250929050565b5f81519050919050565b5f82825260208201905092915050565b8281835e5f83830152505050565b5f6129dd826129ab565b6129e781856129b5565b93506129f78185602086016129c5565b612a00816126cf565b840191505092915050565b7f4e487b71000000000000000000000000000000000000000000000000000000005f52602160045260245ffd5b60048110612a4957612a48612a0b565b5b50565b5f819050612a5982612a38565b919050565b5f612a6882612a4c565b9050919050565b612a7881612a5e565b82525050565b60038110612a8f57612a8e612a0b565b5b50565b5f819050612a9f82612a7e565b919050565b5f612aae82612a92565b9050919050565b612abe81612aa4565b82525050565b5f6080820190508181035f830152612adc81876129d3565b9050612aeb602083018661284a565b612af86040830185612a6f565b612b056060830184612ab5565b95945050505050565b5f60208284031215612b2357612b2261252d565b5b5f612b30848285016125dc565b91505092915050565b5f602082019050612b4c5f830184612a6f565b92915050565b5f81519050919050565b5f82825260208201905092915050565b5f819050602082019050919050565b5f819050919050565b612b8d81612b7b565b82525050565b612b9c816125b5565b82525050565b5f82825260208201905092915050565b5f612bbc826129ab565b612bc68185612ba2565b9350612bd68185602086016129c5565b612bdf816126cf565b840191505092915050565b5f608083015f830151612bff5f860182612b84565b506020830151612c126020860182612b93565b5060408301518482036040860152612c2a8282612bb2565b91505060608301518482036060860152612c448282612bb2565b9150508091505092915050565b5f612c5c8383612bea565b905092915050565b5f602082019050919050565b5f612c7a82612b52565b612c848185612b5c565b935083602082028501612c9685612b6c565b805f5b85811015612cd15784840389528151612cb28582612c51565b9450612cbd83612c64565b925060208a01995050600181019050612c99565b50829750879550505050505092915050565b5f6020820190508181035f830152612cfb8184612c70565b905092915050565b5f81905092915050565b5f612d17826129ab565b612d218185612d03565b9350612d318185602086016129c5565b80840191505092915050565b5f612d488284612d0d565b915081905092915050565b7f70726f64756374206e6f7420666f756e640000000000000000000000000000005f82015250565b5f612d876011836129b5565b9150612d9282612d53565b602082019050919050565b5f6020820190508181035f830152612db481612d7b565b9050919050565b5f612dc68385612d03565b9350612dd3838584612787565b82840190509392505050565b5f612deb828486612dbb565b91508190509392505050565b7f6f6e6c792061646d696e206f72206f776e6572000000000000000000000000005f82015250565b5f612e2b6013836129b5565b9150612e3682612df7565b602082019050919050565b5f6020820190508181035f830152612e5881612e1f565b9050919050565b7f6f6e6c79206f776e6572000000000000000000000000000000000000000000005f82015250565b5f612e93600a836129b5565b9150612e9e82612e5f565b602082019050919050565b5f6020820190508181035f830152612ec081612e87565b9050919050565b7f4e487b71000000000000000000000000000000000000000000000000000000005f52602260045260245ffd5b5f6002820490506001821680612f0b57607f821691505b602082108103612f1e57612f1d612ec7565b5b50919050565b5f819050815f5260205f209050919050565b5f6020601f8301049050919050565b5f82821b905092915050565b5f60088302612f807fffffffffffffffffffffffffffffffffffffffffffffffffffffffffffffffff82612f45565b612f8a8683612f45565b95508019841693508086168417925050509392505050565b5f819050919050565b5f612fc5612fc0612fbb84612b7b565b612fa2565b612b7b565b9050919050565b5f819050919050565b612fde83612fab565b612ff2612fea82612fcc565b848454612f51565b825550505050565b5f5f905090565b613009612ffa565b613014818484612fd5565b505050565b5b818110156130375761302c5f82613001565b60018101905061301a565b5050565b601f82111561307c5761304d81612f24565b61305684612f36565b81016020851015613065578190505b61307961307185612f36565b830182613019565b50505b505050565b5f82821c905092915050565b5f61309c5f1984600802613081565b1980831691505092915050565b5f6130b4838361308d565b9150826002028217905092915050565b6130cd826129ab565b67ffffffffffffffff8111156130e6576130e56126df565b5b6130f08254612ef4565b6130fb82828561303b565b5f60209050601f83116001811461312c575f841561311a578287015190505b61312485826130a9565b86555061318b565b601f19841661313a86612f24565b5f5b828110156131615784890151825560018201915060208501945060208101905061313c565b8683101561317e578489015161317a601f89168261308d565b8355505b6001600288020188555050505b505050505050565b7f6f6e6c792061646d696e000000000000000000000000000000000000000000005f82015250565b5f6131c7600a836129b5565b91506131d282613193565b602082019050919050565b5f6020820190508181035f8301526131f4816131bb565b9050919050565b7f6e6f2070656e64696e67207472616e7366657220746f20796f750000000000005f82015250565b5f61322f601a836129b5565b915061323a826131fb565b602082019050919050565b5f6020820190508181035f83015261325c81613223565b9050919050565b7f6f6e6c79206f776e65722063616e20696e697469617465207472616e736665725f82015250565b5f6132976020836129b5565b91506132a282613263565b602082019050919050565b5f6020820190508181035f8301526132c48161328b565b9050919050565b7f696e76616c696420726563697069656e740000000000000000000000000000005f82015250565b5f6132ff6011836129b5565b915061330a826132cb565b602082019050919050565b5f6020820190508181035f83015261332c816132f3565b9050919050565b7f756e617574686f72697a656420726f6c650000000000000000000000000000005f82015250565b5f6133676011836129b5565b915061337282613333565b602082019050919050565b5f6020820190508181035f8301526133948161335b565b9050919050565b7f616c7265616479206578697374730000000000000000000000000000000000005f82015250565b5f6133cf600e836129b5565b91506133da8261339b565b602082019050919050565b5f6020820190508181035f8301526133fc816133c3565b9050919050565b5f82905092915050565b6134178383613403565b67ffffffffffffffff8111156134305761342f6126df565b5b61343a8254612ef4565b61344582828561303b565b5f601f831160018114613472575f8415613460578287013590505b61346a85826130a9565b8655506134d1565b601f19841661348086612f24565b5f5b828110156134a757848901358255600182019150602085019450602081019050613482565b868310156134c457848901356134c0601f89168261308d565b8355505b6001600288020188555050505b50505050505050565b7f6f6e6c79206f776e65722063616e206d61726b207265636569766564000000005f82015250565b5f61350e601c836129b5565b9150613519826134da565b602082019050919050565b5f6020820190508181035f83015261353b81613502565b9050919050565b7f6e6f2076696577207065726d697373696f6e20666f7220746869732070726f645f8201527f7563740000000000000000000000000000000000000000000000000000000000602082015250565b5f61359c6023836129b5565b91506135a782613542565b604082019050919050565b5f6020820190508181035f8301526135c981613590565b9050919050565b7f4e487b71000000000000000000000000000000000000000000000000000000005f52603260045260245ffd5b7f4e487b71000000000000000000000000000000000000000000000000000000005f52601160045260245ffd5b5f61363482612b7b565b915061363f83612b7b565b925082820261364d81612b7b565b91508282048414831517613664576136636135fd565b5b5092915050565b5f61367582612b7b565b915061368083612b7b565b9250828201905080821115613698576136976135fd565b5b9291505056fea26469706673582212200ef3667954ba1f8f4ab13d94fa3af0c9916d4c309045b587eada468c57fc723864736f6c634300081e0033",
			"opcodes": "PUSH1 0x80 PUSH1 0x40 MSTORE CALLVALUE DUP1 ISZERO PUSH1 0xE JUMPI PUSH0 PUSH0 REVERT JUMPDEST POP CALLER PUSH1 0x1 PUSH0 PUSH2 0x100 EXP DUP2 SLOAD DUP2 PUSH20 0xFFFFFFFFFFFFFFFFFFFFFFFFFFFFFFFFFFFFFFFF MUL NOT AND SWAP1 DUP4 PUSH20 0xFFFFFFFFFFFFFFFFFFFFFFFFFFFFFFFFFFFFFFFF AND MUL OR SWAP1 SSTORE POP PUSH0 PUSH0 PUSH0 CALLER PUSH20 0xFFFFFFFFFFFFFFFFFFFFFFFFFFFFFFFFFFFFFFFF AND PUSH20 0xFFFFFFFFFFFFFFFFFFFFFFFFFFFFFFFFFFFFFFFF AND DUP2 MSTORE PUSH1 0x20 ADD SWAP1 DUP2 MSTORE PUSH1 0x20 ADD PUSH0 KECCAK256 PUSH0 PUSH2 0x100 EXP DUP2 SLOAD DUP2 PUSH1 0xFF MUL NOT AND SWAP1 DUP4 PUSH1 0x3 DUP2 GT ISZERO PUSH1 0xAA JUMPI PUSH1 0xA9 PUSH1 0xB3 JUMP JUMPDEST JUMPDEST MUL OR SWAP1 SSTORE POP PUSH1 0xE0 JUMP JUMPDEST PUSH32 0x4E487B7100000000000000000000000000000000000000000000000000000000 PUSH0 MSTORE PUSH1 0x21 PUSH1 0x4 MSTORE PUSH1 0x24 PUSH0 REVERT JUMPDEST PUSH2 0x36D4 DUP1 PUSH2 0xED PUSH0 CODECOPY PUSH0 RETURN INVALID PUSH1 0x80 PUSH1 0x40 MSTORE CALLVALUE DUP1 ISZERO PUSH2 0xF JUMPI PUSH0 PUSH0 REVERT JUMPDEST POP PUSH1 0x4 CALLDATASIZE LT PUSH2 0xF3 JUMPI PUSH0 CALLDATALOAD PUSH1 0xE0 SHR DUP1 PUSH4 0x80E52E3F GT PUSH2 0x95 JUMPI DUP1 PUSH4 0x99374642 GT PUSH2 0x64 JUMPI DUP1 PUSH4 0x99374642 EQ PUSH2 0x26A JUMPI DUP1 PUSH4 0xC0A6DDA3 EQ PUSH2 0x29A JUMPI DUP1 PUSH4 0xD4F50453 EQ PUSH2 0x2B6 JUMPI DUP1 PUSH4 0xF851A440 EQ PUSH2 0x2E6 JUMPI PUSH2 0xF3 JUMP JUMPDEST DUP1 PUSH4 0x80E52E3F EQ PUSH2 0x1FA JUMPI DUP1 PUSH4 0x842AF60D EQ PUSH2 0x216 JUMPI DUP1 PUSH4 0x87592BCE EQ PUSH2 0x232 JUMPI DUP1 PUSH4 0x96ED6107 EQ PUSH2 0x24E JUMPI PUSH2 0xF3 JUMP JUMPDEST DUP1 PUSH4 0x57D8894F GT PUSH2 0xD1 JUMPI DUP1 PUSH4 0x57D8894F EQ PUSH2 0x15F JUMPI DUP1 PUSH4 0x630A195B EQ PUSH2 0x18F JUMPI DUP1 PUSH4 0x6B696666 EQ PUSH2 0x1AB JUMPI DUP1 PUSH4 0x6D136F62 EQ PUSH2 0x1DE JUMPI PUSH2 0xF3 JUMP JUMPDEST DUP1 PUSH4 0xC2094CC EQ PUSH2 0xF7 JUMPI DUP1 PUSH4 0x2FDCCD0B EQ PUSH2 0x113 JUMPI DUP1 PUSH4 0x4C8DBCB9 EQ PUSH2 0x12F JUMPI JUMPDEST PUSH0 PUSH0 REVERT JUMPDEST PUSH2 0x111 PUSH1 0x4 DUP1 CALLDATASIZE SUB DUP2 ADD SWAP1 PUSH2 0x10C SWAP2 SWAP1 PUSH2 0x25F0 JUMP JUMPDEST PUSH2 0x304 JUMP JUMPDEST STOP JUMPDEST PUSH2 0x12D PUSH1 0x4 DUP1 CALLDATASIZE SUB DUP2 ADD SWAP1 PUSH2 0x128 SWAP2 SWAP1 PUSH2 0x264D JUMP JUMPDEST PUSH2 0x595 JUMP JUMPDEST STOP JUMPDEST PUSH2 0x149 PUSH1 0x4 DUP1 CALLDATASIZE SUB DUP2 ADD SWAP1 PUSH2 0x144 SWAP2 SWAP1 PUSH2 0x2803 JUMP JUMPDEST PUSH2 0x857 JUMP JUMPDEST PUSH1 0x40 MLOAD PUSH2 0x156 SWAP2 SWAP1 PUSH2 0x2859 JUMP JUMPDEST PUSH1 0x40 MLOAD DUP1 SWAP2 SUB SWAP1 RETURN JUMPDEST PUSH2 0x179 PUSH1 0x4 DUP1 CALLDATASIZE SUB DUP2 ADD SWAP1 PUSH2 0x174 SWAP2 SWAP1 PUSH2 0x2872 JUMP JUMPDEST PUSH2 0x89F JUMP JUMPDEST PUSH1 0x40 MLOAD PUSH2 0x186 SWAP2 SWAP1 PUSH2 0x28E6 JUMP JUMPDEST PUSH1 0x40 MLOAD DUP1 SWAP2 SUB SWAP1 RETURN JUMPDEST PUSH2 0x1A9 PUSH1 0x4 DUP1 CALLDATASIZE SUB DUP2 ADD SWAP1 PUSH2 0x1A4 SWAP2 SWAP1 PUSH2 0x2922 JUMP JUMPDEST PUSH2 0x8E1 JUMP JUMPDEST STOP JUMPDEST PUSH2 0x1C5 PUSH1 0x4 DUP1 CALLDATASIZE SUB DUP2 ADD SWAP1 PUSH2 0x1C0 SWAP2 SWAP1 PUSH2 0x2960 JUMP JUMPDEST PUSH2 0x9D7 JUMP JUMPDEST PUSH1 0x40 MLOAD PUSH2 0x1D5 SWAP5 SWAP4 SWAP3 SWAP2 SWAP1 PUSH2 0x2AC4 JUMP JUMPDEST PUSH1 0x40 MLOAD DUP1 SWAP2 SUB SWAP1 RETURN JUMPDEST PUSH2 0x1F8 PUSH1 0x4 DUP1 CALLDATASIZE SUB DUP2 ADD SWAP1 PUSH2 0x1F3 SWAP2 SWAP1 PUSH2 0x2960 JUMP JUMPDEST PUSH2 0xB98 JUMP JUMPDEST STOP JUMPDEST PUSH2 0x214 PUSH1 0x4 DUP1 CALLDATASIZE SUB DUP2 ADD SWAP1 PUSH2 0x20F SWAP2 SWAP1 PUSH2 0x2B0E JUMP JUMPDEST PUSH2 0xFD6 JUMP JUMPDEST STOP JUMPDEST PUSH2 0x230 PUSH1 0x4 DUP1 CALLDATASIZE SUB DUP2 ADD SWAP1 PUSH2 0x22B SWAP2 SWAP1 PUSH2 0x25F0 JUMP JUMPDEST PUSH2 0x10CB JUMP JUMPDEST STOP JUMPDEST PUSH2 0x24C PUSH1 0x4 DUP1 CALLDATASIZE SUB DUP2 ADD SWAP1 PUSH2 0x247 SWAP2 SWAP1 PUSH2 0x264D JUMP JUMPDEST PUSH2 0x14BC JUMP JUMPDEST STOP JUMPDEST PUSH2 0x268 PUSH1 0x4 DUP1 CALLDATASIZE SUB DUP2 ADD SWAP1 PUSH2 0x263 SWAP2 SWAP1 PUSH2 0x25F0 JUMP JUMPDEST PUSH2 0x193B JUMP JUMPDEST STOP JUMPDEST PUSH2 0x284 PUSH1 0x4 DUP1 CALLDATASIZE SUB DUP2 ADD SWAP1 PUSH2 0x27F SWAP2 SWAP1 PUSH2 0x2B0E JUMP JUMPDEST PUSH2 0x1BCB JUMP JUMPDEST PUSH1 0x40 MLOAD PUSH2 0x291 SWAP2 SWAP1 PUSH2 0x2B39 JUMP JUMPDEST PUSH1 0x40 MLOAD DUP1 SWAP2 SUB SWAP1 RETURN JUMPDEST PUSH2 0x2B4 PUSH1 0x4 DUP1 CALLDATASIZE SUB DUP2 ADD SWAP1 PUSH2 0x2AF SWAP2 SWAP1 PUSH2 0x2960 JUMP JUMPDEST PUSH2 0x1BE7 JUMP JUMPDEST STOP JUMPDEST PUSH2 0x2D0 PUSH1 0x4 DUP1 CALLDATASIZE SUB DUP2 ADD SWAP1 PUSH2 0x2CB SWAP2 SWAP1 PUSH2 0x2960 JUMP JUMPDEST PUSH2 0x1EFA JUMP JUMPDEST PUSH1 0x40 MLOAD PUSH2 0x2DD SWAP2 SWAP1 PUSH2 0x2CE3 JUMP JUMPDEST PUSH1 0x40 MLOAD DUP1 SWAP2 SUB SWAP1 RETURN JUMPDEST PUSH2 0x2EE PUSH2 0x2251 JUMP JUMPDEST PUSH1 0x40 MLOAD PUSH2 0x2FB SWAP2 SWAP1 PUSH2 0x2859 JUMP JUMPDEST PUSH1 0x40 MLOAD DUP1 SWAP2 SUB SWAP1 RETURN JUMPDEST DUP3 DUP3 DUP1 DUP1 PUSH1 0x1F ADD PUSH1 0x20 DUP1 SWAP2 DIV MUL PUSH1 0x20 ADD PUSH1 0x40 MLOAD SWAP1 DUP2 ADD PUSH1 0x40 MSTORE DUP1 SWAP4 SWAP3 SWAP2 SWAP1 DUP2 DUP2 MSTORE PUSH1 0x20 ADD DUP4 DUP4 DUP1 DUP3 DUP5 CALLDATACOPY PUSH0 DUP2 DUP5 ADD MSTORE PUSH1 0x1F NOT PUSH1 0x1F DUP3 ADD AND SWAP1 POP DUP1 DUP4 ADD SWAP3 POP POP POP POP POP POP POP PUSH1 0x2 DUP2 PUSH1 0x40 MLOAD PUSH2 0x358 SWAP2 SWAP1 PUSH2 0x2D3D JUMP JUMPDEST SWAP1 DUP2 MSTORE PUSH1 0x20 ADD PUSH1 0x40 MLOAD DUP1 SWAP2 SUB SWAP1 KECCAK256 PUSH1 0x3 ADD PUSH0 SWAP1 SLOAD SWAP1 PUSH2 0x100 EXP SWAP1 DIV PUSH1 0xFF AND PUSH2 0x3B5 JUMPI PUSH1 0x40 MLOAD PUSH32 0x8C379A000000000000000000000000000000000000000000000000000000000 DUP2 MSTORE PUSH1 0x4 ADD PUSH2 0x3AC SWAP1 PUSH2 0x2D9D JUMP JUMPDEST PUSH1 0x40 MLOAD DUP1 SWAP2 SUB SWAP1 REVERT JUMPDEST PUSH0 PUSH1 0x2 DUP6 DUP6 PUSH1 0x40 MLOAD PUSH2 0x3C8 SWAP3 SWAP2 SWAP1 PUSH2 0x2DDF JUMP JUMPDEST SWAP1 DUP2 MSTORE PUSH1 0x20 ADD PUSH1 0x40 MLOAD DUP1 SWAP2 SUB SWAP1 KECCAK256 SWAP1 POP PUSH1 0x1 PUSH0 SWAP1 SLOAD SWAP1 PUSH2 0x100 EXP SWAP1 DIV PUSH20 0xFFFFFFFFFFFFFFFFFFFFFFFFFFFFFFFFFFFFFFFF AND PUSH20 0xFFFFFFFFFFFFFFFFFFFFFFFFFFFFFFFFFFFFFFFF AND CALLER PUSH20 0xFFFFFFFFFFFFFFFFFFFFFFFFFFFFFFFFFFFFFFFF AND EQ DUP1 PUSH2 0x481 JUMPI POP DUP1 PUSH1 0x1 ADD PUSH0 SWAP1 SLOAD SWAP1 PUSH2 0x100 EXP SWAP1 DIV PUSH20 0xFFFFFFFFFFFFFFFFFFFFFFFFFFFFFFFFFFFFFFFF AND PUSH20 0xFFFFFFFFFFFFFFFFFFFFFFFFFFFFFFFFFFFFFFFF AND CALLER PUSH20 0xFFFFFFFFFFFFFFFFFFFFFFFFFFFFFFFFFFFFFFFF AND EQ JUMPDEST PUSH2 0x4C0 JUMPI PUSH1 0x40 MLOAD PUSH32 0x8C379A000000000000000000000000000000000000000000000000000000000 DUP2 MSTORE PUSH1 0x4 ADD PUSH2 0x4B7 SWAP1 PUSH2 0x2E41 JUMP JUMPDEST PUSH1 0x40 MLOAD DUP1 SWAP2 SUB SWAP1 REVERT JUMPDEST PUSH1 0x1 PUSH1 0x4 DUP7 DUP7 PUSH1 0x40 MLOAD PUSH2 0x4D4 SWAP3 SWAP2 SWAP1 PUSH2 0x2DDF JUMP JUMPDEST SWAP1 DUP2 MSTORE PUSH1 0x20 ADD PUSH1 0x40 MLOAD DUP1 SWAP2 SUB SWAP1 KECCAK256 PUSH0 DUP6 PUSH20 0xFFFFFFFFFFFFFFFFFFFFFFFFFFFFFFFFFFFFFFFF AND PUSH20 0xFFFFFFFFFFFFFFFFFFFFFFFFFFFFFFFFFFFFFFFF AND DUP2 MSTORE PUSH1 0x20 ADD SWAP1 DUP2 MSTORE PUSH1 0x20 ADD PUSH0 KECCAK256 PUSH0 PUSH2 0x100 EXP DUP2 SLOAD DUP2 PUSH1 0xFF MUL NOT AND SWAP1 DUP4 ISZERO ISZERO MUL OR SWAP1 SSTORE POP DUP3 PUSH20 0xFFFFFFFFFFFFFFFFFFFFFFFFFFFFFFFFFFFFFFFF AND DUP6 DUP6 PUSH1 0x40 MLOAD PUSH2 0x55A SWAP3 SWAP2 SWAP1 PUSH2 0x2DDF JUMP JUMPDEST PUSH1 0x40 MLOAD DUP1 SWAP2 SUB SWAP1 KECCAK256 PUSH32 0x780F596ECB91E1E030F57631A828B4C1F227615C1E11422248348930F6D2160C PUSH1 0x40 MLOAD PUSH1 0x40 MLOAD DUP1 SWAP2 SUB SWAP1 LOG3 POP POP POP POP POP JUMP JUMPDEST DUP4 DUP4 DUP1 DUP1 PUSH1 0x1F ADD PUSH1 0x20 DUP1 SWAP2 DIV MUL PUSH1 0x20 ADD PUSH1 0x40 MLOAD SWAP1 DUP2 ADD PUSH1 0x40 MSTORE DUP1 SWAP4 SWAP3 SWAP2 SWAP1 DUP2 DUP2 MSTORE PUSH1 0x20 ADD DUP4 DUP4 DUP1 DUP3 DUP5 CALLDATACOPY PUSH0 DUP2 DUP5 ADD MSTORE PUSH1 0x1F NOT PUSH1 0x1F DUP3 ADD AND SWAP1 POP DUP1 DUP4 ADD SWAP3 POP POP POP POP POP POP POP PUSH1 0x2 DUP2 PUSH1 0x40 MLOAD PUSH2 0x5E9 SWAP2 SWAP1 PUSH2 0x2D3D JUMP JUMPDEST SWAP1 DUP2 MSTORE PUSH1 0x20 ADD PUSH1 0x40 MLOAD DUP1 SWAP2 SUB SWAP1 KECCAK256 PUSH1 0x3 ADD PUSH0 SWAP1 SLOAD SWAP1 PUSH2 0x100 EXP SWAP1 DIV PUSH1 0xFF AND PUSH2 0x646 JUMPI PUSH1 0x40 MLOAD PUSH32 0x8C379A000000000000000000000000000000000000000000000000000000000 DUP2 MSTORE PUSH1 0x4 ADD PUSH2 0x63D SWAP1 PUSH2 0x2D9D JUMP JUMPDEST PUSH1 0x40 MLOAD DUP1 SWAP2 SUB SWAP1 REVERT JUMPDEST PUSH0 PUSH1 0x2 DUP7 DUP7 PUSH1 0x40 MLOAD PUSH2 0x659 SWAP3 SWAP2 SWAP1 PUSH2 0x2DDF JUMP JUMPDEST SWAP1 DUP2 MSTORE PUSH1 0x20 ADD PUSH1 0x40 MLOAD DUP1 SWAP2 SUB SWAP1 KECCAK256 SWAP1 POP DUP1 PUSH1 0x1 ADD PUSH0 SWAP1 SLOAD SWAP1 PUSH2 0x100 EXP SWAP1 DIV PUSH20 0xFFFFFFFFFFFFFFFFFFFFFFFFFFFFFFFFFFFFFFFF AND PUSH20 0xFFFFFFFFFFFFFFFFFFFFFFFFFFFFFFFFFFFFFFFF AND CALLER PUSH20 0xFFFFFFFFFFFFFFFFFFFFFFFFFFFFFFFFFFFFFFFF AND EQ PUSH2 0x6FA JUMPI PUSH1 0x40 MLOAD PUSH32 0x8C379A000000000000000000000000000000000000000000000000000000000 DUP2 MSTORE PUSH1 0x4 ADD PUSH2 0x6F1 SWAP1 PUSH2 0x2EA9 JUMP JUMPDEST PUSH1 0x40 MLOAD DUP1 SWAP2 SUB SWAP1 REVERT JUMPDEST DUP1 PUSH1 0x2 ADD PUSH1 0x40 MLOAD DUP1 PUSH1 0x80 ADD PUSH1 0x40 MSTORE DUP1 TIMESTAMP DUP2 MSTORE PUSH1 0x20 ADD CALLER PUSH20 0xFFFFFFFFFFFFFFFFFFFFFFFFFFFFFFFFFFFFFFFF AND DUP2 MSTORE PUSH1 0x20 ADD PUSH1 0x40 MLOAD DUP1 PUSH1 0x40 ADD PUSH1 0x40 MSTORE DUP1 PUSH1 0x4 DUP2 MSTORE PUSH1 0x20 ADD PUSH32 0x4E6F746500000000000000000000000000000000000000000000000000000000 DUP2 MSTORE POP DUP2 MSTORE PUSH1 0x20 ADD DUP7 DUP7 DUP1 DUP1 PUSH1 0x1F ADD PUSH1 0x20 DUP1 SWAP2 DIV MUL PUSH1 0x20 ADD PUSH1 0x40 MLOAD SWAP1 DUP2 ADD PUSH1 0x40 MSTORE DUP1 SWAP4 SWAP3 SWAP2 SWAP1 DUP2 DUP2 MSTORE PUSH1 0x20 ADD DUP4 DUP4 DUP1 DUP3 DUP5 CALLDATACOPY PUSH0 DUP2 DUP5 ADD MSTORE PUSH1 0x1F NOT PUSH1 0x1F DUP3 ADD AND SWAP1 POP DUP1 DUP4 ADD SWAP3 POP POP POP POP POP POP POP DUP2 MSTORE POP SWAP1 DUP1 PUSH1 0x1 DUP2 SLOAD ADD DUP1 DUP3 SSTORE DUP1 SWAP2 POP POP PUSH1 0x1 SWAP1 SUB SWAP1 PUSH0 MSTORE PUSH1 0x20 PUSH0 KECCAK256 SWAP1 PUSH1 0x4 MUL ADD PUSH0 SWAP1 SWAP2 SWAP1 SWAP2 SWAP1 SWAP2 POP PUSH0 DUP3 ADD MLOAD DUP2 PUSH0 ADD SSTORE PUSH1 0x20 DUP3 ADD MLOAD DUP2 PUSH1 0x1 ADD PUSH0 PUSH2 0x100 EXP DUP2 SLOAD DUP2 PUSH20 0xFFFFFFFFFFFFFFFFFFFFFFFFFFFFFFFFFFFFFFFF MUL NOT AND SWAP1 DUP4 PUSH20 0xFFFFFFFFFFFFFFFFFFFFFFFFFFFFFFFFFFFFFFFF AND MUL OR SWAP1 SSTORE POP PUSH1 0x40 DUP3 ADD MLOAD DUP2 PUSH1 0x2 ADD SWAP1 DUP2 PUSH2 0x836 SWAP2 SWAP1 PUSH2 0x30C4 JUMP JUMPDEST POP PUSH1 0x60 DUP3 ADD MLOAD DUP2 PUSH1 0x3 ADD SWAP1 DUP2 PUSH2 0x84C SWAP2 SWAP1 PUSH2 0x30C4 JUMP JUMPDEST POP POP POP POP POP POP POP POP POP JUMP JUMPDEST PUSH1 0x3 DUP2 DUP1 MLOAD PUSH1 0x20 DUP2 ADD DUP3 ADD DUP1 MLOAD DUP5 DUP3 MSTORE PUSH1 0x20 DUP4 ADD PUSH1 0x20 DUP6 ADD KECCAK256 DUP2 DUP4 MSTORE DUP1 SWAP6 POP POP POP POP POP POP PUSH0 SWAP2 POP SLOAD SWAP1 PUSH2 0x100 EXP SWAP1 DIV PUSH20 0xFFFFFFFFFFFFFFFFFFFFFFFFFFFFFFFFFFFFFFFF AND DUP2 JUMP JUMPDEST PUSH1 0x4 DUP3 DUP1 MLOAD PUSH1 0x20 DUP2 ADD DUP3 ADD DUP1 MLOAD DUP5 DUP3 MSTORE PUSH1 0x20 DUP4 ADD PUSH1 0x20 DUP6 ADD KECCAK256 DUP2 DUP4 MSTORE DUP1 SWAP6 POP POP POP POP POP POP PUSH1 0x20 MSTORE DUP1 PUSH0 MSTORE PUSH1 0x40 PUSH0 KECCAK256 PUSH0 SWAP2 POP SWAP2 POP SWAP1 SLOAD SWAP1 PUSH2 0x100 EXP SWAP1 DIV PUSH1 0xFF AND DUP2 JUMP JUMPDEST PUSH1 0x1 PUSH0 SWAP1 SLOAD SWAP1 PUSH2 0x100 EXP SWAP1 DIV PUSH20 0xFFFFFFFFFFFFFFFFFFFFFFFFFFFFFFFFFFFFFFFF AND PUSH20 0xFFFFFFFFFFFFFFFFFFFFFFFFFFFFFFFFFFFFFFFF AND CALLER PUSH20 0xFFFFFFFFFFFFFFFFFFFFFFFFFFFFFFFFFFFFFFFF AND EQ PUSH2 0x970 JUMPI PUSH1 0x40 MLOAD PUSH32 0x8C379A000000000000000000000000000000000000000000000000000000000 DUP2 MSTORE PUSH1 0x4 ADD PUSH2 0x967 SWAP1 PUSH2 0x31DD JUMP JUMPDEST PUSH1 0x40 MLOAD DUP1 SWAP2 SUB SWAP1 REVERT JUMPDEST DUP1 PUSH0 PUSH0 DUP5 PUSH20 0xFFFFFFFFFFFFFFFFFFFFFFFFFFFFFFFFFFFFFFFF AND PUSH20 0xFFFFFFFFFFFFFFFFFFFFFFFFFFFFFFFFFFFFFFFF AND DUP2 MSTORE PUSH1 0x20 ADD SWAP1 DUP2 MSTORE PUSH1 0x20 ADD PUSH0 KECCAK256 PUSH0 PUSH2 0x100 EXP DUP2 SLOAD DUP2 PUSH1 0xFF MUL NOT AND SWAP1 DUP4 PUSH1 0x3 DUP2 GT ISZERO PUSH2 0x9CE JUMPI PUSH2 0x9CD PUSH2 0x2A0B JUMP JUMPDEST JUMPDEST MUL OR SWAP1 SSTORE POP POP POP JUMP JUMPDEST PUSH1 0x60 PUSH0 PUSH0 PUSH0 DUP6 DUP6 DUP1 DUP1 PUSH1 0x1F ADD PUSH1 0x20 DUP1 SWAP2 DIV MUL PUSH1 0x20 ADD PUSH1 0x40 MLOAD SWAP1 DUP2 ADD PUSH1 0x40 MSTORE DUP1 SWAP4 SWAP3 SWAP2 SWAP1 DUP2 DUP2 MSTORE PUSH1 0x20 ADD DUP4 DUP4 DUP1 DUP3 DUP5 CALLDATACOPY PUSH0 DUP2 DUP5 ADD MSTORE PUSH1 0x1F NOT PUSH1 0x1F DUP3 ADD AND SWAP1 POP DUP1 DUP4 ADD SWAP3 POP POP POP POP POP POP POP PUSH1 0x2 DUP2 PUSH1 0x40 MLOAD PUSH2 0xA30 SWAP2 SWAP1 PUSH2 0x2D3D JUMP JUMPDEST SWAP1 DUP2 MSTORE PUSH1 0x20 ADD PUSH1 0x40 MLOAD DUP1 SWAP2 SUB SWAP1 KECCAK256 PUSH1 0x3 ADD PUSH0 SWAP1 SLOAD SWAP1 PUSH2 0x100 EXP SWAP1 DIV PUSH1 0xFF AND PUSH2 0xA8D JUMPI PUSH1 0x40 MLOAD PUSH32 0x8C379A000000000000000000000000000000000000000000000000000000000 DUP2 MSTORE PUSH1 0x4 ADD PUSH2 0xA84 SWAP1 PUSH2 0x2D9D JUMP JUMPDEST PUSH1 0x40 MLOAD DUP1 SWAP2 SUB SWAP1 REVERT JUMPDEST PUSH0 PUSH1 0x2 DUP9 DUP9 PUSH1 0x40 MLOAD PUSH2 0xAA0 SWAP3 SWAP2 SWAP1 PUSH2 0x2DDF JUMP JUMPDEST SWAP1 DUP2 MSTORE PUSH1 0x20 ADD PUSH1 0x40 MLOAD DUP1 SWAP2 SUB SWAP1 KECCAK256 SWAP1 POP DUP1 PUSH0 ADD DUP2 PUSH1 0x1 ADD PUSH0 SWAP1 SLOAD SWAP1 PUSH2 0x100 EXP SWAP1 DIV PUSH20 0xFFFFFFFFFFFFFFFFFFFFFFFFFFFFFFFFFFFFFFFF AND DUP3 PUSH1 0x1 ADD PUSH1 0x14 SWAP1 SLOAD SWAP1 PUSH2 0x100 EXP SWAP1 DIV PUSH1 0xFF AND DUP4 PUSH1 0x1 ADD PUSH1 0x15 SWAP1 SLOAD SWAP1 PUSH2 0x100 EXP SWAP1 DIV PUSH1 0xFF AND DUP4 DUP1 SLOAD PUSH2 0xB07 SWAP1 PUSH2 0x2EF4 JUMP JUMPDEST DUP1 PUSH1 0x1F ADD PUSH1 0x20 DUP1 SWAP2 DIV MUL PUSH1 0x20 ADD PUSH1 0x40 MLOAD SWAP1 DUP2 ADD PUSH1 0x40 MSTORE DUP1 SWAP3 SWAP2 SWAP1 DUP2 DUP2 MSTORE PUSH1 0x20 ADD DUP3 DUP1 SLOAD PUSH2 0xB33 SWAP1 PUSH2 0x2EF4 JUMP JUMPDEST DUP1 ISZERO PUSH2 0xB7E JUMPI DUP1 PUSH1 0x1F LT PUSH2 0xB55 JUMPI PUSH2 0x100 DUP1 DUP4 SLOAD DIV MUL DUP4 MSTORE SWAP2 PUSH1 0x20 ADD SWAP2 PUSH2 0xB7E JUMP JUMPDEST DUP3 ADD SWAP2 SWAP1 PUSH0 MSTORE PUSH1 0x20 PUSH0 KECCAK256 SWAP1 JUMPDEST DUP2 SLOAD DUP2 MSTORE SWAP1 PUSH1 0x1 ADD SWAP1 PUSH1 0x20 ADD DUP1 DUP4 GT PUSH2 0xB61 JUMPI DUP3 SWAP1 SUB PUSH1 0x1F AND DUP3 ADD SWAP2 JUMPDEST POP POP POP POP POP SWAP4 POP SWAP6 POP SWAP6 POP SWAP6 POP SWAP6 POP POP POP SWAP3 SWAP6 SWAP2 SWAP5 POP SWAP3 POP JUMP JUMPDEST DUP2 DUP2 DUP1 DUP1 PUSH1 0x1F ADD PUSH1 0x20 DUP1 SWAP2 DIV MUL PUSH1 0x20 ADD PUSH1 0x40 MLOAD SWAP1 DUP2 ADD PUSH1 0x40 MSTORE DUP1 SWAP4 SWAP3 SWAP2 SWAP1 DUP2 DUP2 MSTORE PUSH1 0x20 ADD DUP4 DUP4 DUP1 DUP3 DUP5 CALLDATACOPY PUSH0 DUP2 DUP5 ADD MSTORE PUSH1 0x1F NOT PUSH1 0x1F DUP3 ADD AND SWAP1 POP DUP1 DUP4 ADD SWAP3 POP POP POP POP POP POP POP PUSH1 0x2 DUP2 PUSH1 0x40 MLOAD PUSH2 0xBEC SWAP2 SWAP1 PUSH2 0x2D3D JUMP JUMPDEST SWAP1 DUP2 MSTORE PUSH1 0x20 ADD PUSH1 0x40 MLOAD DUP1 SWAP2 SUB SWAP1 KECCAK256 PUSH1 0x3 ADD PUSH0 SWAP1 SLOAD SWAP1 PUSH2 0x100 EXP SWAP1 DIV PUSH1 0xFF AND PUSH2 0xC49 JUMPI PUSH1 0x40 MLOAD PUSH32 0x8C379A000000000000000000000000000000000000000000000000000000000 DUP2 MSTORE PUSH1 0x4 ADD PUSH2 0xC40 SWAP1 PUSH2 0x2D9D JUMP JUMPDEST PUSH1 0x40 MLOAD DUP1 SWAP2 SUB SWAP1 REVERT JUMPDEST CALLER PUSH20 0xFFFFFFFFFFFFFFFFFFFFFFFFFFFFFFFFFFFFFFFF AND PUSH1 0x3 DUP5 DUP5 PUSH1 0x40 MLOAD PUSH2 0xC72 SWAP3 SWAP2 SWAP1 PUSH2 0x2DDF JUMP JUMPDEST SWAP1 DUP2 MSTORE PUSH1 0x20 ADD PUSH1 0x40 MLOAD DUP1 SWAP2 SUB SWAP1 KECCAK256 PUSH0 SWAP1 SLOAD SWAP1 PUSH2 0x100 EXP SWAP1 DIV PUSH20 0xFFFFFFFFFFFFFFFFFFFFFFFFFFFFFFFFFFFFFFFF AND PUSH20 0xFFFFFFFFFFFFFFFFFFFFFFFFFFFFFFFFFFFFFFFF AND EQ PUSH2 0xCF6 JUMPI PUSH1 0x40 MLOAD PUSH32 0x8C379A000000000000000000000000000000000000000000000000000000000 DUP2 MSTORE PUSH1 0x4 ADD PUSH2 0xCED SWAP1 PUSH2 0x3245 JUMP JUMPDEST PUSH1 0x40 MLOAD DUP1 SWAP2 SUB SWAP1 REVERT JUMPDEST PUSH0 PUSH1 0x2 DUP5 DUP5 PUSH1 0x40 MLOAD PUSH2 0xD09 SWAP3 SWAP2 SWAP1 PUSH2 0x2DDF JUMP JUMPDEST SWAP1 DUP2 MSTORE PUSH1 0x20 ADD PUSH1 0x40 MLOAD DUP1 SWAP2 SUB SWAP1 KECCAK256 SWAP1 POP PUSH0 DUP2 PUSH1 0x1 ADD PUSH0 SWAP1 SLOAD SWAP1 PUSH2 0x100 EXP SWAP1 DIV PUSH20 0xFFFFFFFFFFFFFFFFFFFFFFFFFFFFFFFFFFFFFFFF AND SWAP1 POP CALLER DUP3 PUSH1 0x1 ADD PUSH0 PUSH2 0x100 EXP DUP2 SLOAD DUP2 PUSH20 0xFFFFFFFFFFFFFFFFFFFFFFFFFFFFFFFFFFFFFFFF MUL NOT AND SWAP1 DUP4 PUSH20 0xFFFFFFFFFFFFFFFFFFFFFFFFFFFFFFFFFFFFFFFF AND MUL OR SWAP1 SSTORE POP PUSH0 PUSH0 CALLER PUSH20 0xFFFFFFFFFFFFFFFFFFFFFFFFFFFFFFFFFFFFFFFF AND PUSH20 0xFFFFFFFFFFFFFFFFFFFFFFFFFFFFFFFFFFFFFFFF AND DUP2 MSTORE PUSH1 0x20 ADD SWAP1 DUP2 MSTORE PUSH1 0x20 ADD PUSH0 KECCAK256 PUSH0 SWAP1 SLOAD SWAP1 PUSH2 0x100 EXP SWAP1 DIV PUSH1 0xFF AND DUP3 PUSH1 0x1 ADD PUSH1 0x14 PUSH2 0x100 EXP DUP2 SLOAD DUP2 PUSH1 0xFF MUL NOT AND SWAP1 DUP4 PUSH1 0x3 DUP2 GT ISZERO PUSH2 0xDF1 JUMPI PUSH2 0xDF0 PUSH2 0x2A0B JUMP JUMPDEST JUMPDEST MUL OR SWAP1 SSTORE POP DUP2 PUSH1 0x2 ADD PUSH1 0x40 MLOAD DUP1 PUSH1 0x80 ADD PUSH1 0x40 MSTORE DUP1 TIMESTAMP DUP2 MSTORE PUSH1 0x20 ADD CALLER PUSH20 0xFFFFFFFFFFFFFFFFFFFFFFFFFFFFFFFFFFFFFFFF AND DUP2 MSTORE PUSH1 0x20 ADD PUSH1 0x40 MLOAD DUP1 PUSH1 0x40 ADD PUSH1 0x40 MSTORE DUP1 PUSH1 0x10 DUP2 MSTORE PUSH1 0x20 ADD PUSH32 0x5472616E73666572416363657074656400000000000000000000000000000000 DUP2 MSTORE POP DUP2 MSTORE PUSH1 0x20 ADD PUSH1 0x40 MLOAD DUP1 PUSH1 0x20 ADD PUSH1 0x40 MSTORE DUP1 PUSH0 DUP2 MSTORE POP DUP2 MSTORE POP SWAP1 DUP1 PUSH1 0x1 DUP2 SLOAD ADD DUP1 DUP3 SSTORE DUP1 SWAP2 POP POP PUSH1 0x1 SWAP1 SUB SWAP1 PUSH0 MSTORE PUSH1 0x20 PUSH0 KECCAK256 SWAP1 PUSH1 0x4 MUL ADD PUSH0 SWAP1 SWAP2 SWAP1 SWAP2 SWAP1 SWAP2 POP PUSH0 DUP3 ADD MLOAD DUP2 PUSH0 ADD SSTORE PUSH1 0x20 DUP3 ADD MLOAD DUP2 PUSH1 0x1 ADD PUSH0 PUSH2 0x100 EXP DUP2 SLOAD DUP2 PUSH20 0xFFFFFFFFFFFFFFFFFFFFFFFFFFFFFFFFFFFFFFFF MUL NOT AND SWAP1 DUP4 PUSH20 0xFFFFFFFFFFFFFFFFFFFFFFFFFFFFFFFFFFFFFFFF AND MUL OR SWAP1 SSTORE POP PUSH1 0x40 DUP3 ADD MLOAD DUP2 PUSH1 0x2 ADD SWAP1 DUP2 PUSH2 0xEFD SWAP2 SWAP1 PUSH2 0x30C4 JUMP JUMPDEST POP PUSH1 0x60 DUP3 ADD MLOAD DUP2 PUSH1 0x3 ADD SWAP1 DUP2 PUSH2 0xF13 SWAP2 SWAP1 PUSH2 0x30C4 JUMP JUMPDEST POP POP POP PUSH0 PUSH1 0x3 DUP7 DUP7 PUSH1 0x40 MLOAD PUSH2 0xF29 SWAP3 SWAP2 SWAP1 PUSH2 0x2DDF JUMP JUMPDEST SWAP1 DUP2 MSTORE PUSH1 0x20 ADD PUSH1 0x40 MLOAD DUP1 SWAP2 SUB SWAP1 KECCAK256 PUSH0 PUSH2 0x100 EXP DUP2 SLOAD DUP2 PUSH20 0xFFFFFFFFFFFFFFFFFFFFFFFFFFFFFFFFFFFFFFFF MUL NOT AND SWAP1 DUP4 PUSH20 0xFFFFFFFFFFFFFFFFFFFFFFFFFFFFFFFFFFFFFFFF AND MUL OR SWAP1 SSTORE POP CALLER PUSH20 0xFFFFFFFFFFFFFFFFFFFFFFFFFFFFFFFFFFFFFFFF AND DUP6 DUP6 PUSH1 0x40 MLOAD PUSH2 0xF9B SWAP3 SWAP2 SWAP1 PUSH2 0x2DDF JUMP JUMPDEST PUSH1 0x40 MLOAD DUP1 SWAP2 SUB SWAP1 KECCAK256 PUSH32 0x77F9B14BCCB831F84BD283A53852B3CA219A25802484DF3143B211729AF0CC83 PUSH1 0x40 MLOAD PUSH1 0x40 MLOAD DUP1 SWAP2 SUB SWAP1 LOG3 POP POP POP POP POP JUMP JUMPDEST PUSH1 0x1 PUSH0 SWAP1 SLOAD SWAP1 PUSH2 0x100 EXP SWAP1 DIV PUSH20 0xFFFFFFFFFFFFFFFFFFFFFFFFFFFFFFFFFFFFFFFF AND PUSH20 0xFFFFFFFFFFFFFFFFFFFFFFFFFFFFFFFFFFFFFFFF AND CALLER PUSH20 0xFFFFFFFFFFFFFFFFFFFFFFFFFFFFFFFFFFFFFFFF AND EQ PUSH2 0x1065 JUMPI PUSH1 0x40 MLOAD PUSH32 0x8C379A000000000000000000000000000000000000000000000000000000000 DUP2 MSTORE PUSH1 0x4 ADD PUSH2 0x105C SWAP1 PUSH2 0x31DD JUMP JUMPDEST PUSH1 0x40 MLOAD DUP1 SWAP2 SUB SWAP1 REVERT JUMPDEST PUSH0 PUSH0 PUSH0 DUP4 PUSH20 0xFFFFFFFFFFFFFFFFFFFFFFFFFFFFFFFFFFFFFFFF AND PUSH20 0xFFFFFFFFFFFFFFFFFFFFFFFFFFFFFFFFFFFFFFFF AND DUP2 MSTORE PUSH1 0x20 ADD SWAP1 DUP2 MSTORE PUSH1 0x20 ADD PUSH0 KECCAK256 PUSH0 PUSH2 0x100 EXP DUP2 SLOAD DUP2 PUSH1 0xFF MUL NOT AND SWAP1 DUP4 PUSH1 0x3 DUP2 GT ISZERO PUSH2 0x10C3 JUMPI PUSH2 0x10C2 PUSH2 0x2A0B JUMP JUMPDEST JUMPDEST MUL OR SWAP1 SSTORE POP POP JUMP JUMPDEST DUP3 DUP3 DUP1 DUP1 PUSH1 0x1F ADD PUSH1 0x20 DUP1 SWAP2 DIV MUL PUSH1 0x20 ADD PUSH1 0x40 MLOAD SWAP1 DUP2 ADD PUSH1 0x40 MSTORE DUP1 SWAP4 SWAP3 SWAP2 SWAP1 DUP2 DUP2 MSTORE PUSH1 0x20 ADD DUP4 DUP4 DUP1 DUP3 DUP5 CALLDATACOPY PUSH0 DUP2 DUP5 ADD MSTORE PUSH1 0x1F NOT PUSH1 0x1F DUP3 ADD AND SWAP1 POP DUP1 DUP4 ADD SWAP3 POP POP POP POP POP POP POP PUSH1 0x2 DUP2 PUSH1 0x40 MLOAD PUSH2 0x111F SWAP2 SWAP1 PUSH2 0x2D3D JUMP JUMPDEST SWAP1 DUP2 MSTORE PUSH1 0x20 ADD PUSH1 0x40 MLOAD DUP1 SWAP2 SUB SWAP1 KECCAK256 PUSH1 0x3 ADD PUSH0 SWAP1 SLOAD SWAP1 PUSH2 0x100 EXP SWAP1 DIV PUSH1 0xFF AND PUSH2 0x117C JUMPI PUSH1 0x40 MLOAD PUSH32 0x8C379A000000000000000000000000000000000000000000000000000000000 DUP2 MSTORE PUSH1 0x4 ADD PUSH2 0x1173 SWAP1 PUSH2 0x2D9D JUMP JUMPDEST PUSH1 0x40 MLOAD DUP1 SWAP2 SUB SWAP1 REVERT JUMPDEST PUSH0 PUSH1 0x2 DUP6 DUP6 PUSH1 0x40 MLOAD PUSH2 0x118F SWAP3 SWAP2 SWAP1 PUSH2 0x2DDF JUMP JUMPDEST SWAP1 DUP2 MSTORE PUSH1 0x20 ADD PUSH1 0x40 MLOAD DUP1 SWAP2 SUB SWAP1 KECCAK256 SWAP1 POP DUP1 PUSH1 0x1 ADD PUSH0 SWAP1 SLOAD SWAP1 PUSH2 0x100 EXP SWAP1 DIV PUSH20 0xFFFFFFFFFFFFFFFFFFFFFFFFFFFFFFFFFFFFFFFF AND PUSH20 0xFFFFFFFFFFFFFFFFFFFFFFFFFFFFFFFFFFFFFFFF AND CALLER PUSH20 0xFFFFFFFFFFFFFFFFFFFFFFFFFFFFFFFFFFFFFFFF AND EQ PUSH2 0x1230 JUMPI PUSH1 0x40 MLOAD PUSH32 0x8C379A000000000000000000000000000000000000000000000000000000000 DUP2 MSTORE PUSH1 0x4 ADD PUSH2 0x1227 SWAP1 PUSH2 0x32AD JUMP JUMPDEST PUSH1 0x40 MLOAD DUP1 SWAP2 SUB SWAP1 REVERT JUMPDEST PUSH0 PUSH20 0xFFFFFFFFFFFFFFFFFFFFFFFFFFFFFFFFFFFFFFFF AND DUP4 PUSH20 0xFFFFFFFFFFFFFFFFFFFFFFFFFFFFFFFFFFFFFFFF AND SUB PUSH2 0x129E JUMPI PUSH1 0x40 MLOAD PUSH32 0x8C379A000000000000000000000000000000000000000000000000000000000 DUP2 MSTORE PUSH1 0x4 ADD PUSH2 0x1295 SWAP1 PUSH2 0x3315 JUMP JUMPDEST PUSH1 0x40 MLOAD DUP1 SWAP2 SUB SWAP1 REVERT JUMPDEST DUP3 PUSH1 0x3 DUP7 DUP7 PUSH1 0x40 MLOAD PUSH2 0x12B1 SWAP3 SWAP2 SWAP1 PUSH2 0x2DDF JUMP JUMPDEST SWAP1 DUP2 MSTORE PUSH1 0x20 ADD PUSH1 0x40 MLOAD DUP1 SWAP2 SUB SWAP1 KECCAK256 PUSH0 PUSH2 0x100 EXP DUP2 SLOAD DUP2 PUSH20 0xFFFFFFFFFFFFFFFFFFFFFFFFFFFFFFFFFFFFFFFF MUL NOT AND SWAP1 DUP4 PUSH20 0xFFFFFFFFFFFFFFFFFFFFFFFFFFFFFFFFFFFFFFFF AND MUL OR SWAP1 SSTORE POP DUP1 PUSH1 0x2 ADD PUSH1 0x40 MLOAD DUP1 PUSH1 0x80 ADD PUSH1 0x40 MSTORE DUP1 TIMESTAMP DUP2 MSTORE PUSH1 0x20 ADD CALLER PUSH20 0xFFFFFFFFFFFFFFFFFFFFFFFFFFFFFFFFFFFFFFFF AND DUP2 MSTORE PUSH1 0x20 ADD PUSH1 0x40 MLOAD DUP1 PUSH1 0x40 ADD PUSH1 0x40 MSTORE DUP1 PUSH1 0x11 DUP2 MSTORE PUSH1 0x20 ADD PUSH32 0x5472616E73666572496E69746961746564000000000000000000000000000000 DUP2 MSTORE POP DUP2 MSTORE PUSH1 0x20 ADD PUSH2 0x1371 DUP7 PUSH2 0x2276 JUMP JUMPDEST DUP2 MSTORE POP SWAP1 DUP1 PUSH1 0x1 DUP2 SLOAD ADD DUP1 DUP3 SSTORE DUP1 SWAP2 POP POP PUSH1 0x1 SWAP1 SUB SWAP1 PUSH0 MSTORE PUSH1 0x20 PUSH0 KECCAK256 SWAP1 PUSH1 0x4 MUL ADD PUSH0 SWAP1 SWAP2 SWAP1 SWAP2 SWAP1 SWAP2 POP PUSH0 DUP3 ADD MLOAD DUP2 PUSH0 ADD SSTORE PUSH1 0x20 DUP3 ADD MLOAD DUP2 PUSH1 0x1 ADD PUSH0 PUSH2 0x100 EXP DUP2 SLOAD DUP2 PUSH20 0xFFFFFFFFFFFFFFFFFFFFFFFFFFFFFFFFFFFFFFFF MUL NOT AND SWAP1 DUP4 PUSH20 0xFFFFFFFFFFFFFFFFFFFFFFFFFFFFFFFFFFFFFFFF AND MUL OR SWAP1 SSTORE POP PUSH1 0x40 DUP3 ADD MLOAD DUP2 PUSH1 0x2 ADD SWAP1 DUP2 PUSH2 0x13FD SWAP2 SWAP1 PUSH2 0x30C4 JUMP JUMPDEST POP PUSH1 0x60 DUP3 ADD MLOAD DUP2 PUSH1 0x3 ADD SWAP1 DUP2 PUSH2 0x1413 SWAP2 SWAP1 PUSH2 0x30C4 JUMP JUMPDEST POP POP POP PUSH1 0x1 DUP2 PUSH1 0x1 ADD PUSH1 0x15 PUSH2 0x100 EXP DUP2 SLOAD DUP2 PUSH1 0xFF MUL NOT AND SWAP1 DUP4 PUSH1 0x2 DUP2 GT ISZERO PUSH2 0x143E JUMPI PUSH2 0x143D PUSH2 0x2A0B JUMP JUMPDEST JUMPDEST MUL OR SWAP1 SSTORE POP DUP3 PUSH20 0xFFFFFFFFFFFFFFFFFFFFFFFFFFFFFFFFFFFFFFFF AND CALLER PUSH20 0xFFFFFFFFFFFFFFFFFFFFFFFFFFFFFFFFFFFFFFFF AND DUP7 DUP7 PUSH1 0x40 MLOAD PUSH2 0x1481 SWAP3 SWAP2 SWAP1 PUSH2 0x2DDF JUMP JUMPDEST PUSH1 0x40 MLOAD DUP1 SWAP2 SUB SWAP1 KECCAK256 PUSH32 0xCACC282346753D2F375DE14B9B4B6AC468FFC411065CEC53FE7318DE3130B0A9 PUSH1 0x40 MLOAD PUSH1 0x40 MLOAD DUP1 SWAP2 SUB SWAP1 LOG4 POP POP POP POP POP JUMP JUMPDEST PUSH1 0x1 DUP1 PUSH1 0x3 DUP2 GT ISZERO PUSH2 0x14D1 JUMPI PUSH2 0x14D0 PUSH2 0x2A0B JUMP JUMPDEST JUMPDEST PUSH0 PUSH0 CALLER PUSH20 0xFFFFFFFFFFFFFFFFFFFFFFFFFFFFFFFFFFFFFFFF AND PUSH20 0xFFFFFFFFFFFFFFFFFFFFFFFFFFFFFFFFFFFFFFFF AND DUP2 MSTORE PUSH1 0x20 ADD SWAP1 DUP2 MSTORE PUSH1 0x20 ADD PUSH0 KECCAK256 PUSH0 SWAP1 SLOAD SWAP1 PUSH2 0x100 EXP SWAP1 DIV PUSH1 0xFF AND PUSH1 0x3 DUP2 GT ISZERO PUSH2 0x152C JUMPI PUSH2 0x152B PUSH2 0x2A0B JUMP JUMPDEST JUMPDEST EQ PUSH2 0x156C JUMPI PUSH1 0x40 MLOAD PUSH32 0x8C379A000000000000000000000000000000000000000000000000000000000 DUP2 MSTORE PUSH1 0x4 ADD PUSH2 0x1563 SWAP1 PUSH2 0x337D JUMP JUMPDEST PUSH1 0x40 MLOAD DUP1 SWAP2 SUB SWAP1 REVERT JUMPDEST PUSH1 0x2 DUP6 DUP6 PUSH1 0x40 MLOAD PUSH2 0x157E SWAP3 SWAP2 SWAP1 PUSH2 0x2DDF JUMP JUMPDEST SWAP1 DUP2 MSTORE PUSH1 0x20 ADD PUSH1 0x40 MLOAD DUP1 SWAP2 SUB SWAP1 KECCAK256 PUSH1 0x3 ADD PUSH0 SWAP1 SLOAD SWAP1 PUSH2 0x100 EXP SWAP1 DIV PUSH1 0xFF AND ISZERO PUSH2 0x15DC JUMPI PUSH1 0x40 MLOAD PUSH32 0x8C379A000000000000000000000000000000000000000000000000000000000 DUP2 MSTORE PUSH1 0x4 ADD PUSH2 0x15D3 SWAP1 PUSH2 0x33E5 JUMP JUMPDEST PUSH1 0x40 MLOAD DUP1 SWAP2 SUB SWAP1 REVERT JUMPDEST PUSH0 PUSH1 0x2 DUP7 DUP7 PUSH1 0x40 MLOAD PUSH2 0x15EF SWAP3 SWAP2 SWAP1 PUSH2 0x2DDF JUMP JUMPDEST SWAP1 DUP2 MSTORE PUSH1 0x20 ADD PUSH1 0x40 MLOAD DUP1 SWAP2 SUB SWAP1 KECCAK256 SWAP1 POP DUP6 DUP6 DUP3 PUSH0 ADD SWAP2 DUP3 PUSH2 0x1611 SWAP3 SWAP2 SWAP1 PUSH2 0x340D JUMP JUMPDEST POP CALLER DUP2 PUSH1 0x1 ADD PUSH0 PUSH2 0x100 EXP DUP2 SLOAD DUP2 PUSH20 0xFFFFFFFFFFFFFFFFFFFFFFFFFFFFFFFFFFFFFFFF MUL NOT AND SWAP1 DUP4 PUSH20 0xFFFFFFFFFFFFFFFFFFFFFFFFFFFFFFFFFFFFFFFF AND MUL OR SWAP1 SSTORE POP PUSH0 PUSH0 CALLER PUSH20 0xFFFFFFFFFFFFFFFFFFFFFFFFFFFFFFFFFFFFFFFF AND PUSH20 0xFFFFFFFFFFFFFFFFFFFFFFFFFFFFFFFFFFFFFFFF AND DUP2 MSTORE PUSH1 0x20 ADD SWAP1 DUP2 MSTORE PUSH1 0x20 ADD PUSH0 KECCAK256 PUSH0 SWAP1 SLOAD SWAP1 PUSH2 0x100 EXP SWAP1 DIV PUSH1 0xFF AND DUP2 PUSH1 0x1 ADD PUSH1 0x14 PUSH2 0x100 EXP DUP2 SLOAD DUP2 PUSH1 0xFF MUL NOT AND SWAP1 DUP4 PUSH1 0x3 DUP2 GT ISZERO PUSH2 0x16C3 JUMPI PUSH2 0x16C2 PUSH2 0x2A0B JUMP JUMPDEST JUMPDEST MUL OR SWAP1 SSTORE POP PUSH0 DUP2 PUSH1 0x1 ADD PUSH1 0x15 PUSH2 0x100 EXP DUP2 SLOAD DUP2 PUSH1 0xFF MUL NOT AND SWAP1 DUP4 PUSH1 0x2 DUP2 GT ISZERO PUSH2 0x16EF JUMPI PUSH2 0x16EE PUSH2 0x2A0B JUMP JUMPDEST JUMPDEST MUL OR SWAP1 SSTORE POP PUSH1 0x1 DUP2 PUSH1 0x3 ADD PUSH0 PUSH2 0x100 EXP DUP2 SLOAD DUP2 PUSH1 0xFF MUL NOT AND SWAP1 DUP4 ISZERO ISZERO MUL OR SWAP1 SSTORE POP DUP1 PUSH1 0x2 ADD PUSH1 0x40 MLOAD DUP1 PUSH1 0x80 ADD PUSH1 0x40 MSTORE DUP1 TIMESTAMP DUP2 MSTORE PUSH1 0x20 ADD CALLER PUSH20 0xFFFFFFFFFFFFFFFFFFFFFFFFFFFFFFFFFFFFFFFF AND DUP2 MSTORE PUSH1 0x20 ADD PUSH1 0x40 MLOAD DUP1 PUSH1 0x40 ADD PUSH1 0x40 MSTORE DUP1 PUSH1 0x7 DUP2 MSTORE PUSH1 0x20 ADD PUSH32 0x4372656174656400000000000000000000000000000000000000000000000000 DUP2 MSTORE POP DUP2 MSTORE PUSH1 0x20 ADD DUP7 DUP7 DUP1 DUP1 PUSH1 0x1F ADD PUSH1 0x20 DUP1 SWAP2 DIV MUL PUSH1 0x20 ADD PUSH1 0x40 MLOAD SWAP1 DUP2 ADD PUSH1 0x40 MSTORE DUP1 SWAP4 SWAP3 SWAP2 SWAP1 DUP2 DUP2 MSTORE PUSH1 0x20 ADD DUP4 DUP4 DUP1 DUP3 DUP5 CALLDATACOPY PUSH0 DUP2 DUP5 ADD MSTORE PUSH1 0x1F NOT PUSH1 0x1F DUP3 ADD AND SWAP1 POP DUP1 DUP4 ADD SWAP3 POP POP POP POP POP POP POP DUP2 MSTORE POP SWAP1 DUP1 PUSH1 0x1 DUP2 SLOAD ADD DUP1 DUP3 SSTORE DUP1 SWAP2 POP POP PUSH1 0x1 SWAP1 SUB SWAP1 PUSH0 MSTORE PUSH1 0x20 PUSH0 KECCAK256 SWAP1 PUSH1 0x4 MUL ADD PUSH0 SWAP1 SWAP2 SWAP1 SWAP2 SWAP1 SWAP2 POP PUSH0 DUP3 ADD MLOAD DUP2 PUSH0 ADD SSTORE PUSH1 0x20 DUP3 ADD MLOAD DUP2 PUSH1 0x1 ADD PUSH0 PUSH2 0x100 EXP DUP2 SLOAD DUP2 PUSH20 0xFFFFFFFFFFFFFFFFFFFFFFFFFFFFFFFFFFFFFFFF MUL NOT AND SWAP1 DUP4 PUSH20 0xFFFFFFFFFFFFFFFFFFFFFFFFFFFFFFFFFFFFFFFF AND MUL OR SWAP1 SSTORE POP PUSH1 0x40 DUP3 ADD MLOAD DUP2 PUSH1 0x2 ADD SWAP1 DUP2 PUSH2 0x184C SWAP2 SWAP1 PUSH2 0x30C4 JUMP JUMPDEST POP PUSH1 0x60 DUP3 ADD MLOAD DUP2 PUSH1 0x3 ADD SWAP1 DUP2 PUSH2 0x1862 SWAP2 SWAP1 PUSH2 0x30C4 JUMP JUMPDEST POP POP POP PUSH1 0x1 PUSH1 0x4 DUP8 DUP8 PUSH1 0x40 MLOAD PUSH2 0x1879 SWAP3 SWAP2 SWAP1 PUSH2 0x2DDF JUMP JUMPDEST SWAP1 DUP2 MSTORE PUSH1 0x20 ADD PUSH1 0x40 MLOAD DUP1 SWAP2 SUB SWAP1 KECCAK256 PUSH0 CALLER PUSH20 0xFFFFFFFFFFFFFFFFFFFFFFFFFFFFFFFFFFFFFFFF AND PUSH20 0xFFFFFFFFFFFFFFFFFFFFFFFFFFFFFFFFFFFFFFFF AND DUP2 MSTORE PUSH1 0x20 ADD SWAP1 DUP2 MSTORE PUSH1 0x20 ADD PUSH0 KECCAK256 PUSH0 PUSH2 0x100 EXP DUP2 SLOAD DUP2 PUSH1 0xFF MUL NOT AND SWAP1 DUP4 ISZERO ISZERO MUL OR SWAP1 SSTORE POP CALLER PUSH20 0xFFFFFFFFFFFFFFFFFFFFFFFFFFFFFFFFFFFFFFFF AND DUP7 DUP7 PUSH1 0x40 MLOAD PUSH2 0x18FF SWAP3 SWAP2 SWAP1 PUSH2 0x2DDF JUMP JUMPDEST PUSH1 0x40 MLOAD DUP1 SWAP2 SUB SWAP1 KECCAK256 PUSH32 0x6276B46249F3EF9F8582903C6F0D43109FEBB82B3EC9F4DBD15662BB71EC9C7B PUSH1 0x40 MLOAD PUSH1 0x40 MLOAD DUP1 SWAP2 SUB SWAP1 LOG3 POP POP POP POP POP POP JUMP JUMPDEST DUP3 DUP3 DUP1 DUP1 PUSH1 0x1F ADD PUSH1 0x20 DUP1 SWAP2 DIV MUL PUSH1 0x20 ADD PUSH1 0x40 MLOAD SWAP1 DUP2 ADD PUSH1 0x40 MSTORE DUP1 SWAP4 SWAP3 SWAP2 SWAP1 DUP2 DUP2 MSTORE PUSH1 0x20 ADD DUP4 DUP4 DUP1 DUP3 DUP5 CALLDATACOPY PUSH0 DUP2 DUP5 ADD MSTORE PUSH1 0x1F NOT PUSH1 0x1F DUP3 ADD AND SWAP1 POP DUP1 DUP4 ADD SWAP3 POP POP POP POP POP POP POP PUSH1 0x2 DUP2 PUSH1 0x40 MLOAD PUSH2 0x198F SWAP2 SWAP1 PUSH2 0x2D3D JUMP JUMPDEST SWAP1 DUP2 MSTORE PUSH1 0x20 ADD PUSH1 0x40 MLOAD DUP1 SWAP2 SUB SWAP1 KECCAK256 PUSH1 0x3 ADD PUSH0 SWAP1 SLOAD SWAP1 PUSH2 0x100 EXP SWAP1 DIV PUSH1 0xFF AND PUSH2 0x19EC JUMPI PUSH1 0x40 MLOAD PUSH32 0x8C379A000000000000000000000000000000000000000000000000000000000 DUP2 MSTORE PUSH1 0x4 ADD PUSH2 0x19E3 SWAP1 PUSH2 0x2D9D JUMP JUMPDEST PUSH1 0x40 MLOAD DUP1 SWAP2 SUB SWAP1 REVERT JUMPDEST PUSH0 PUSH1 0x2 DUP6 DUP6 PUSH1 0x40 MLOAD PUSH2 0x19FF SWAP3 SWAP2 SWAP1 PUSH2 0x2DDF JUMP JUMPDEST SWAP1 DUP2 MSTORE PUSH1 0x20 ADD PUSH1 0x40 MLOAD DUP1 SWAP2 SUB SWAP1 KECCAK256 SWAP1 POP PUSH1 0x1 PUSH0 SWAP1 SLOAD SWAP1 PUSH2 0x100 EXP SWAP1 DIV PUSH20 0xFFFFFFFFFFFFFFFFFFFFFFFFFFFFFFFFFFFFFFFF AND PUSH20 0xFFFFFFFFFFFFFFFFFFFFFFFFFFFFFFFFFFFFFFFF AND CALLER PUSH20 0xFFFFFFFFFFFFFFFFFFFFFFFFFFFFFFFFFFFFFFFF AND EQ DUP1 PUSH2 0x1AB8 JUMPI POP DUP1 PUSH1 0x1 ADD PUSH0 SWAP1 SLOAD SWAP1 PUSH2 0x100 EXP SWAP1 DIV PUSH20 0xFFFFFFFFFFFFFFFFFFFFFFFFFFFFFFFFFFFFFFFF AND PUSH20 0xFFFFFFFFFFFFFFFFFFFFFFFFFFFFFFFFFFFFFFFF AND CALLER PUSH20 0xFFFFFFFFFFFFFFFFFFFFFFFFFFFFFFFFFFFFFFFF AND EQ JUMPDEST PUSH2 0x1AF7 JUMPI PUSH1 0x40 MLOAD PUSH32 0x8C379A000000000000000000000000000000000000000000000000000000000 DUP2 MSTORE PUSH1 0x4 ADD PUSH2 0x1AEE SWAP1 PUSH2 0x2E41 JUMP JUMPDEST PUSH1 0x40 MLOAD DUP1 SWAP2 SUB SWAP1 REVERT JUMPDEST PUSH0 PUSH1 0x4 DUP7 DUP7 PUSH1 0x40 MLOAD PUSH2 0x1B0A SWAP3 SWAP2 SWAP1 PUSH2 0x2DDF JUMP JUMPDEST SWAP1 DUP2 MSTORE PUSH1 0x20 ADD PUSH1 0x40 MLOAD DUP1 SWAP2 SUB SWAP1 KECCAK256 PUSH0 DUP6 PUSH20 0xFFFFFFFFFFFFFFFFFFFFFFFFFFFFFFFFFFFFFFFF AND PUSH20 0xFFFFFFFFFFFFFFFFFFFFFFFFFFFFFFFFFFFFFFFF AND DUP2 MSTORE PUSH1 0x20 ADD SWAP1 DUP2 MSTORE PUSH1 0x20 ADD PUSH0 KECCAK256 PUSH0 PUSH2 0x100 EXP DUP2 SLOAD DUP2 PUSH1 0xFF MUL NOT AND SWAP1 DUP4 ISZERO ISZERO MUL OR SWAP1 SSTORE POP DUP3 PUSH20 0xFFFFFFFFFFFFFFFFFFFFFFFFFFFFFFFFFFFFFFFF AND DUP6 DUP6 PUSH1 0x40 MLOAD PUSH2 0x1B90 SWAP3 SWAP2 SWAP1 PUSH2 0x2DDF JUMP JUMPDEST PUSH1 0x40 MLOAD DUP1 SWAP2 SUB SWAP1 KECCAK256 PUSH32 0xA4056635223780A71518E8C10B6FC0FD195775C8375C4841C124A959AE5C30AD PUSH1 0x40 MLOAD PUSH1 0x40 MLOAD DUP1 SWAP2 SUB SWAP1 LOG3 POP POP POP POP POP JUMP JUMPDEST PUSH0 PUSH1 0x20 MSTORE DUP1 PUSH0 MSTORE PUSH1 0x40 PUSH0 KECCAK256 PUSH0 SWAP2 POP SLOAD SWAP1 PUSH2 0x100 EXP SWAP1 DIV PUSH1 0xFF AND DUP2 JUMP JUMPDEST DUP2 DUP2 DUP1 DUP1 PUSH1 0x1F ADD PUSH1 0x20 DUP1 SWAP2 DIV MUL PUSH1 0x20 ADD PUSH1 0x40 MLOAD SWAP1 DUP2 ADD PUSH1 0x40 MSTORE DUP1 SWAP4 SWAP3 SWAP2 SWAP1 DUP2 DUP2 MSTORE PUSH1 0x20 ADD DUP4 DUP4 DUP1 DUP3 DUP5 CALLDATACOPY PUSH0 DUP2 DUP5 ADD MSTORE PUSH1 0x1F NOT PUSH1 0x1F DUP3 ADD AND SWAP1 POP DUP1 DUP4 ADD SWAP3 POP POP POP POP POP POP POP PUSH1 0x2 DUP2 PUSH1 0x40 MLOAD PUSH2 0x1C3B SWAP2 SWAP1 PUSH2 0x2D3D JUMP JUMPDEST SWAP1 DUP2 MSTORE PUSH1 0x20 ADD PUSH1 0x40 MLOAD DUP1 SWAP2 SUB SWAP1 KECCAK256 PUSH1 0x3 ADD PUSH0 SWAP1 SLOAD SWAP1 PUSH2 0x100 EXP SWAP1 DIV PUSH1 0xFF AND PUSH2 0x1C98 JUMPI PUSH1 0x40 MLOAD PUSH32 0x8C379A000000000000000000000000000000000000000000000000000000000 DUP2 MSTORE PUSH1 0x4 ADD PUSH2 0x1C8F SWAP1 PUSH2 0x2D9D JUMP JUMPDEST PUSH1 0x40 MLOAD DUP1 SWAP2 SUB SWAP1 REVERT JUMPDEST PUSH0 PUSH1 0x2 DUP5 DUP5 PUSH1 0x40 MLOAD PUSH2 0x1CAB SWAP3 SWAP2 SWAP1 PUSH2 0x2DDF JUMP JUMPDEST SWAP1 DUP2 MSTORE PUSH1 0x20 ADD PUSH1 0x40 MLOAD DUP1 SWAP2 SUB SWAP1 KECCAK256 SWAP1 POP DUP1 PUSH1 0x1 ADD PUSH0 SWAP1 SLOAD SWAP1 PUSH2 0x100 EXP SWAP1 DIV PUSH20 0xFFFFFFFFFFFFFFFFFFFFFFFFFFFFFFFFFFFFFFFF AND PUSH20 0xFFFFFFFFFFFFFFFFFFFFFFFFFFFFFFFFFFFFFFFF AND CALLER PUSH20 0xFFFFFFFFFFFFFFFFFFFFFFFFFFFFFFFFFFFFFFFF AND EQ PUSH2 0x1D4C JUMPI PUSH1 0x40 MLOAD PUSH32 0x8C379A000000000000000000000000000000000000000000000000000000000 DUP2 MSTORE PUSH1 0x4 ADD PUSH2 0x1D43 SWAP1 PUSH2 0x3524 JUMP JUMPDEST PUSH1 0x40 MLOAD DUP1 SWAP2 SUB SWAP1 REVERT JUMPDEST PUSH1 0x2 DUP2 PUSH1 0x1 ADD PUSH1 0x15 PUSH2 0x100 EXP DUP2 SLOAD DUP2 PUSH1 0xFF MUL NOT AND SWAP1 DUP4 PUSH1 0x2 DUP2 GT ISZERO PUSH2 0x1D74 JUMPI PUSH2 0x1D73 PUSH2 0x2A0B JUMP JUMPDEST JUMPDEST MUL OR SWAP1 SSTORE POP DUP1 PUSH1 0x2 ADD PUSH1 0x40 MLOAD DUP1 PUSH1 0x80 ADD PUSH1 0x40 MSTORE DUP1 TIMESTAMP DUP2 MSTORE PUSH1 0x20 ADD CALLER PUSH20 0xFFFFFFFFFFFFFFFFFFFFFFFFFFFFFFFFFFFFFFFF AND DUP2 MSTORE PUSH1 0x20 ADD PUSH1 0x40 MLOAD DUP1 PUSH1 0x40 ADD PUSH1 0x40 MSTORE DUP1 PUSH1 0x8 DUP2 MSTORE PUSH1 0x20 ADD PUSH32 0x5265636569766564000000000000000000000000000000000000000000000000 DUP2 MSTORE POP DUP2 MSTORE PUSH1 0x20 ADD PUSH1 0x40 MLOAD DUP1 PUSH1 0x20 ADD PUSH1 0x40 MSTORE DUP1 PUSH0 DUP2 MSTORE POP DUP2 MSTORE POP SWAP1 DUP1 PUSH1 0x1 DUP2 SLOAD ADD DUP1 DUP3 SSTORE DUP1 SWAP2 POP POP PUSH1 0x1 SWAP1 SUB SWAP1 PUSH0 MSTORE PUSH1 0x20 PUSH0 KECCAK256 SWAP1 PUSH1 0x4 MUL ADD PUSH0 SWAP1 SWAP2 SWAP1 SWAP2 SWAP1 SWAP2 POP PUSH0 DUP3 ADD MLOAD DUP2 PUSH0 ADD SSTORE PUSH1 0x20 DUP3 ADD MLOAD DUP2 PUSH1 0x1 ADD PUSH0 PUSH2 0x100 EXP DUP2 SLOAD DUP2 PUSH20 0xFFFFFFFFFFFFFFFFFFFFFFFFFFFFFFFFFFFFFFFF MUL NOT AND SWAP1 DUP4 PUSH20 0xFFFFFFFFFFFFFFFFFFFFFFFFFFFFFFFFFFFFFFFF AND MUL OR SWAP1 SSTORE POP PUSH1 0x40 DUP3 ADD MLOAD DUP2 PUSH1 0x2 ADD SWAP1 DUP2 PUSH2 0x1E80 SWAP2 SWAP1 PUSH2 0x30C4 JUMP JUMPDEST POP PUSH1 0x60 DUP3 ADD MLOAD DUP2 PUSH1 0x3 ADD SWAP1 DUP2 PUSH2 0x1E96 SWAP2 SWAP1 PUSH2 0x30C4 JUMP JUMPDEST POP POP POP CALLER PUSH20 0xFFFFFFFFFFFFFFFFFFFFFFFFFFFFFFFFFFFFFFFF AND DUP5 DUP5 PUSH1 0x40 MLOAD PUSH2 0x1EC0 SWAP3 SWAP2 SWAP1 PUSH2 0x2DDF JUMP JUMPDEST PUSH1 0x40 MLOAD DUP1 SWAP2 SUB SWAP1 KECCAK256 PUSH32 0xFB273A0B6C793900388A152D77F03C4569D38CB019A682CB1CFD4EA795F93797 PUSH1 0x40 MLOAD PUSH1 0x40 MLOAD DUP1 SWAP2 SUB SWAP1 LOG3 POP POP POP POP JUMP JUMPDEST PUSH1 0x60 DUP3 DUP3 DUP1 DUP1 PUSH1 0x1F ADD PUSH1 0x20 DUP1 SWAP2 DIV MUL PUSH1 0x20 ADD PUSH1 0x40 MLOAD SWAP1 DUP2 ADD PUSH1 0x40 MSTORE DUP1 SWAP4 SWAP3 SWAP2 SWAP1 DUP2 DUP2 MSTORE PUSH1 0x20 ADD DUP4 DUP4 DUP1 DUP3 DUP5 CALLDATACOPY PUSH0 DUP2 DUP5 ADD MSTORE PUSH1 0x1F NOT PUSH1 0x1F DUP3 ADD AND SWAP1 POP DUP1 DUP4 ADD SWAP3 POP POP POP POP POP POP POP PUSH1 0x2 DUP2 PUSH1 0x40 MLOAD PUSH2 0x1F50 SWAP2 SWAP1 PUSH2 0x2D3D JUMP JUMPDEST SWAP1 DUP2 MSTORE PUSH1 0x20 ADD PUSH1 0x40 MLOAD DUP1 SWAP2 SUB SWAP1 KECCAK256 PUSH1 0x3 ADD PUSH0 SWAP1 SLOAD SWAP1 PUSH2 0x100 EXP SWAP1 DIV PUSH1 0xFF AND PUSH2 0x1FAD JUMPI PUSH1 0x40 MLOAD PUSH32 0x8C379A000000000000000000000000000000000000000000000000000000000 DUP2 MSTORE PUSH1 0x4 ADD PUSH2 0x1FA4 SWAP1 PUSH2 0x2D9D JUMP JUMPDEST PUSH1 0x40 MLOAD DUP1 SWAP2 SUB SWAP1 REVERT JUMPDEST PUSH1 0x4 DUP5 DUP5 PUSH1 0x40 MLOAD PUSH2 0x1FBF SWAP3 SWAP2 SWAP1 PUSH2 0x2DDF JUMP JUMPDEST SWAP1 DUP2 MSTORE PUSH1 0x20 ADD PUSH1 0x40 MLOAD DUP1 SWAP2 SUB SWAP1 KECCAK256 PUSH0 CALLER PUSH20 0xFFFFFFFFFFFFFFFFFFFFFFFFFFFFFFFFFFFFFFFF AND PUSH20 0xFFFFFFFFFFFFFFFFFFFFFFFFFFFFFFFFFFFFFFFF AND DUP2 MSTORE PUSH1 0x20 ADD SWAP1 DUP2 MSTORE PUSH1 0x20 ADD PUSH0 KECCAK256 PUSH0 SWAP1 SLOAD SWAP1 PUSH2 0x100 EXP SWAP1 DIV PUSH1 0xFF AND PUSH2 0x2054 JUMPI PUSH1 0x40 MLOAD PUSH32 0x8C379A000000000000000000000000000000000000000000000000000000000 DUP2 MSTORE PUSH1 0x4 ADD PUSH2 0x204B SWAP1 PUSH2 0x35B2 JUMP JUMPDEST PUSH1 0x40 MLOAD DUP1 SWAP2 SUB SWAP1 REVERT JUMPDEST PUSH1 0x2 DUP5 DUP5 PUSH1 0x40 MLOAD PUSH2 0x2066 SWAP3 SWAP2 SWAP1 PUSH2 0x2DDF JUMP JUMPDEST SWAP1 DUP2 MSTORE PUSH1 0x20 ADD PUSH1 0x40 MLOAD DUP1 SWAP2 SUB SWAP1 KECCAK256 PUSH1 0x2 ADD DUP1 SLOAD DUP1 PUSH1 0x20 MUL PUSH1 0x20 ADD PUSH1 0x40 MLOAD SWAP1 DUP2 ADD PUSH1 0x40 MSTORE DUP1 SWAP3 SWAP2 SWAP1 DUP2 DUP2 MSTORE PUSH1 0x20 ADD PUSH0 SWAP1 JUMPDEST DUP3 DUP3 LT ISZERO PUSH2 0x2244 JUMPI DUP4 DUP3 SWAP1 PUSH0 MSTORE PUSH1 0x20 PUSH0 KECCAK256 SWAP1 PUSH1 0x4 MUL ADD PUSH1 0x40 MLOAD DUP1 PUSH1 0x80 ADD PUSH1 0x40 MSTORE SWAP1 DUP2 PUSH0 DUP3 ADD SLOAD DUP2 MSTORE PUSH1 0x20 ADD PUSH1 0x1 DUP3 ADD PUSH0 SWAP1 SLOAD SWAP1 PUSH2 0x100 EXP SWAP1 DIV PUSH20 0xFFFFFFFFFFFFFFFFFFFFFFFFFFFFFFFFFFFFFFFF AND PUSH20 0xFFFFFFFFFFFFFFFFFFFFFFFFFFFFFFFFFFFFFFFF AND PUSH20 0xFFFFFFFFFFFFFFFFFFFFFFFFFFFFFFFFFFFFFFFF AND DUP2 MSTORE PUSH1 0x20 ADD PUSH1 0x2 DUP3 ADD DUP1 SLOAD PUSH2 0x2125 SWAP1 PUSH2 0x2EF4 JUMP JUMPDEST DUP1 PUSH1 0x1F ADD PUSH1 0x20 DUP1 SWAP2 DIV MUL PUSH1 0x20 ADD PUSH1 0x40 MLOAD SWAP1 DUP2 ADD PUSH1 0x40 MSTORE DUP1 SWAP3 SWAP2 SWAP1 DUP2 DUP2 MSTORE PUSH1 0x20 ADD DUP3 DUP1 SLOAD PUSH2 0x2151 SWAP1 PUSH2 0x2EF4 JUMP JUMPDEST DUP1 ISZERO PUSH2 0x219C JUMPI DUP1 PUSH1 0x1F LT PUSH2 0x2173 JUMPI PUSH2 0x100 DUP1 DUP4 SLOAD DIV MUL DUP4 MSTORE SWAP2 PUSH1 0x20 ADD SWAP2 PUSH2 0x219C JUMP JUMPDEST DUP3 ADD SWAP2 SWAP1 PUSH0 MSTORE PUSH1 0x20 PUSH0 KECCAK256 SWAP1 JUMPDEST DUP2 SLOAD DUP2 MSTORE SWAP1 PUSH1 0x1 ADD SWAP1 PUSH1 0x20 ADD DUP1 DUP4 GT PUSH2 0x217F JUMPI DUP3 SWAP1 SUB PUSH1 0x1F AND DUP3 ADD SWAP2 JUMPDEST POP POP POP POP POP DUP2 MSTORE PUSH1 0x20 ADD PUSH1 0x3 DUP3 ADD DUP1 SLOAD PUSH2 0x21B5 SWAP1 PUSH2 0x2EF4 JUMP JUMPDEST DUP1 PUSH1 0x1F ADD PUSH1 0x20 DUP1 SWAP2 DIV MUL PUSH1 0x20 ADD PUSH1 0x40 MLOAD SWAP1 DUP2 ADD PUSH1 0x40 MSTORE DUP1 SWAP3 SWAP2 SWAP1 DUP2 DUP2 MSTORE PUSH1 0x20 ADD DUP3 DUP1 SLOAD PUSH2 0x21E1 SWAP1 PUSH2 0x2EF4 JUMP JUMPDEST DUP1 ISZERO PUSH2 0x222C JUMPI DUP1 PUSH1 0x1F LT PUSH2 0x2203 JUMPI PUSH2 0x100 DUP1 DUP4 SLOAD DIV MUL DUP4 MSTORE SWAP2 PUSH1 0x20 ADD SWAP2 PUSH2 0x222C JUMP JUMPDEST DUP3 ADD SWAP2 SWAP1 PUSH0 MSTORE PUSH1 0x20 PUSH0 KECCAK256 SWAP1 JUMPDEST DUP2 SLOAD DUP2 MSTORE SWAP1 PUSH1 0x1 ADD SWAP1 PUSH1 0x20 ADD DUP1 DUP4 GT PUSH2 0x220F JUMPI DUP3 SWAP1 SUB PUSH1 0x1F AND DUP3 ADD SWAP2 JUMPDEST POP POP POP POP POP DUP2 MSTORE POP POP DUP2 MSTORE PUSH1 0x20 ADD SWAP1 PUSH1 0x1 ADD SWAP1 PUSH2 0x2096 JUMP JUMPDEST POP POP POP POP SWAP2 POP POP SWAP3 SWAP2 POP POP JUMP JUMPDEST PUSH1 0x1 PUSH0 SWAP1 SLOAD SWAP1 PUSH2 0x100 EXP SWAP1 DIV PUSH20 0xFFFFFFFFFFFFFFFFFFFFFFFFFFFFFFFFFFFFFFFF AND DUP2 JUMP JUMPDEST PUSH1 0x60 PUSH0 DUP3 PUSH1 0x60 SHL SWAP1 POP PUSH0 PUSH32 0x3031323334353637383961626364656600000000000000000000000000000000 SWAP1 POP PUSH0 PUSH1 0x2A PUSH8 0xFFFFFFFFFFFFFFFF DUP2 GT ISZERO PUSH2 0x22BF JUMPI PUSH2 0x22BE PUSH2 0x26DF JUMP JUMPDEST JUMPDEST PUSH1 0x40 MLOAD SWAP1 DUP1 DUP3 MSTORE DUP1 PUSH1 0x1F ADD PUSH1 0x1F NOT AND PUSH1 0x20 ADD DUP3 ADD PUSH1 0x40 MSTORE DUP1 ISZERO PUSH2 0x22F1 JUMPI DUP2 PUSH1 0x20 ADD PUSH1 0x1 DUP3 MUL DUP1 CALLDATASIZE DUP4 CALLDATACOPY DUP1 DUP3 ADD SWAP2 POP POP SWAP1 POP JUMPDEST POP SWAP1 POP PUSH32 0x3000000000000000000000000000000000000000000000000000000000000000 DUP2 PUSH0 DUP2 MLOAD DUP2 LT PUSH2 0x2328 JUMPI PUSH2 0x2327 PUSH2 0x35D0 JUMP JUMPDEST JUMPDEST PUSH1 0x20 ADD ADD SWAP1 PUSH31 0xFFFFFFFFFFFFFFFFFFFFFFFFFFFFFFFFFFFFFFFFFFFFFFFFFFFFFFFFFFFFFF NOT AND SWAP1 DUP2 PUSH0 BYTE SWAP1 MSTORE8 POP PUSH32 0x7800000000000000000000000000000000000000000000000000000000000000 DUP2 PUSH1 0x1 DUP2 MLOAD DUP2 LT PUSH2 0x238B JUMPI PUSH2 0x238A PUSH2 0x35D0 JUMP JUMPDEST JUMPDEST PUSH1 0x20 ADD ADD SWAP1 PUSH31 0xFFFFFFFFFFFFFFFFFFFFFFFFFFFFFFFFFFFFFFFFFFFFFFFFFFFFFFFFFFFFFF NOT AND SWAP1 DUP2 PUSH0 BYTE SWAP1 MSTORE8 POP PUSH0 PUSH0 SWAP1 POP JUMPDEST PUSH1 0x14 DUP2 LT ISZERO PUSH2 0x2518 JUMPI DUP3 PUSH1 0x4 DUP6 DUP4 PUSH1 0x14 DUP2 LT PUSH2 0x23DD JUMPI PUSH2 0x23DC PUSH2 0x35D0 JUMP JUMPDEST JUMPDEST BYTE PUSH1 0xF8 SHL PUSH31 0xFFFFFFFFFFFFFFFFFFFFFFFFFFFFFFFFFFFFFFFFFFFFFFFFFFFFFFFFFFFFFF NOT AND SWAP1 SHR PUSH1 0xF8 SHR PUSH1 0xFF AND PUSH1 0x10 DUP2 LT PUSH2 0x241C JUMPI PUSH2 0x241B PUSH2 0x35D0 JUMP JUMPDEST JUMPDEST BYTE PUSH1 0xF8 SHL DUP3 PUSH1 0x2 DUP4 PUSH2 0x242E SWAP2 SWAP1 PUSH2 0x362A JUMP JUMPDEST PUSH1 0x2 PUSH2 0x243A SWAP2 SWAP1 PUSH2 0x366B JUMP JUMPDEST DUP2 MLOAD DUP2 LT PUSH2 0x244B JUMPI PUSH2 0x244A PUSH2 0x35D0 JUMP JUMPDEST JUMPDEST PUSH1 0x20 ADD ADD SWAP1 PUSH31 0xFFFFFFFFFFFFFFFFFFFFFFFFFFFFFFFFFFFFFFFFFFFFFFFFFFFFFFFFFFFFFF NOT AND SWAP1 DUP2 PUSH0 BYTE SWAP1 MSTORE8 POP DUP3 PUSH1 0xF PUSH1 0xF8 SHL DUP6 DUP4 PUSH1 0x14 DUP2 LT PUSH2 0x2492 JUMPI PUSH2 0x2491 PUSH2 0x35D0 JUMP JUMPDEST JUMPDEST BYTE PUSH1 0xF8 SHL AND PUSH1 0xF8 SHR PUSH1 0xFF AND PUSH1 0x10 DUP2 LT PUSH2 0x24AE JUMPI PUSH2 0x24AD PUSH2 0x35D0 JUMP JUMPDEST JUMPDEST BYTE PUSH1 0xF8 SHL DUP3 PUSH1 0x2 DUP4 PUSH2 0x24C0 SWAP2 SWAP1 PUSH2 0x362A JUMP JUMPDEST PUSH1 0x3 PUSH2 0x24CC SWAP2 SWAP1 PUSH2 0x366B JUMP JUMPDEST DUP2 MLOAD DUP2 LT PUSH2 0x24DD JUMPI PUSH2 0x24DC PUSH2 0x35D0 JUMP JUMPDEST JUMPDEST PUSH1 0x20 ADD ADD SWAP1 PUSH31 0xFFFFFFFFFFFFFFFFFFFFFFFFFFFFFFFFFFFFFFFFFFFFFFFFFFFFFFFFFFFFFF NOT AND SWAP1 DUP2 PUSH0 BYTE SWAP1 MSTORE8 POP DUP1 DUP1 PUSH1 0x1 ADD SWAP2 POP POP PUSH2 0x23BE JUMP JUMPDEST POP DUP1 SWAP4 POP POP POP POP SWAP2 SWAP1 POP JUMP JUMPDEST PUSH0 PUSH1 0x40 MLOAD SWAP1 POP SWAP1 JUMP JUMPDEST PUSH0 PUSH0 REVERT JUMPDEST PUSH0 PUSH0 REVERT JUMPDEST PUSH0 PUSH0 REVERT JUMPDEST PUSH0 PUSH0 REVERT JUMPDEST PUSH0 PUSH0 REVERT JUMPDEST PUSH0 PUSH0 DUP4 PUSH1 0x1F DUP5 ADD SLT PUSH2 0x2556 JUMPI PUSH2 0x2555 PUSH2 0x2535 JUMP JUMPDEST JUMPDEST DUP3 CALLDATALOAD SWAP1 POP PUSH8 0xFFFFFFFFFFFFFFFF DUP2 GT ISZERO PUSH2 0x2573 JUMPI PUSH2 0x2572 PUSH2 0x2539 JUMP JUMPDEST JUMPDEST PUSH1 0x20 DUP4 ADD SWAP2 POP DUP4 PUSH1 0x1 DUP3 MUL DUP4 ADD GT ISZERO PUSH2 0x258F JUMPI PUSH2 0x258E PUSH2 0x253D JUMP JUMPDEST JUMPDEST SWAP3 POP SWAP3 SWAP1 POP JUMP JUMPDEST PUSH0 PUSH20 0xFFFFFFFFFFFFFFFFFFFFFFFFFFFFFFFFFFFFFFFF DUP3 AND SWAP1 POP SWAP2 SWAP1 POP JUMP JUMPDEST PUSH0 PUSH2 0x25BF DUP3 PUSH2 0x2596 JUMP JUMPDEST SWAP1 POP SWAP2 SWAP1 POP JUMP JUMPDEST PUSH2 0x25CF DUP2 PUSH2 0x25B5 JUMP JUMPDEST DUP2 EQ PUSH2 0x25D9 JUMPI PUSH0 PUSH0 REVERT JUMPDEST POP JUMP JUMPDEST PUSH0 DUP2 CALLDATALOAD SWAP1 POP PUSH2 0x25EA DUP2 PUSH2 0x25C6 JUMP JUMPDEST SWAP3 SWAP2 POP POP JUMP JUMPDEST PUSH0 PUSH0 PUSH0 PUSH1 0x40 DUP5 DUP7 SUB SLT ISZERO PUSH2 0x2607 JUMPI PUSH2 0x2606 PUSH2 0x252D JUMP JUMPDEST JUMPDEST PUSH0 DUP5 ADD CALLDATALOAD PUSH8 0xFFFFFFFFFFFFFFFF DUP2 GT ISZERO PUSH2 0x2624 JUMPI PUSH2 0x2623 PUSH2 0x2531 JUMP JUMPDEST JUMPDEST PUSH2 0x2630 DUP7 DUP3 DUP8 ADD PUSH2 0x2541 JUMP JUMPDEST SWAP4 POP SWAP4 POP POP PUSH1 0x20 PUSH2 0x2643 DUP7 DUP3 DUP8 ADD PUSH2 0x25DC JUMP JUMPDEST SWAP2 POP POP SWAP3 POP SWAP3 POP SWAP3 JUMP JUMPDEST PUSH0 PUSH0 PUSH0 PUSH0 PUSH1 0x40 DUP6 DUP8 SUB SLT ISZERO PUSH2 0x2665 JUMPI PUSH2 0x2664 PUSH2 0x252D JUMP JUMPDEST JUMPDEST PUSH0 DUP6 ADD CALLDATALOAD PUSH8 0xFFFFFFFFFFFFFFFF DUP2 GT ISZERO PUSH2 0x2682 JUMPI PUSH2 0x2681 PUSH2 0x2531 JUMP JUMPDEST JUMPDEST PUSH2 0x268E DUP8 DUP3 DUP9 ADD PUSH2 0x2541 JUMP JUMPDEST SWAP5 POP SWAP5 POP POP PUSH1 0x20 DUP6 ADD CALLDATALOAD PUSH8 0xFFFFFFFFFFFFFFFF DUP2 GT ISZERO PUSH2 0x26B1 JUMPI PUSH2 0x26B0 PUSH2 0x2531 JUMP JUMPDEST JUMPDEST PUSH2 0x26BD DUP8 DUP3 DUP9 ADD PUSH2 0x2541 JUMP JUMPDEST SWAP3 POP SWAP3 POP POP SWAP3 SWAP6 SWAP2 SWAP5 POP SWAP3 POP JUMP JUMPDEST PUSH0 PUSH0 REVERT JUMPDEST PUSH0 PUSH1 0x1F NOT PUSH1 0x1F DUP4 ADD AND SWAP1 POP SWAP2 SWAP1 POP JUMP JUMPDEST PUSH32 0x4E487B7100000000000000000000000000000000000000000000000000000000 PUSH0 MSTORE PUSH1 0x41 PUSH1 0x4 MSTORE PUSH1 0x24 PUSH0 REVERT JUMPDEST PUSH2 0x2715 DUP3 PUSH2 0x26CF JUMP JUMPDEST DUP2 ADD DUP2 DUP2 LT PUSH8 0xFFFFFFFFFFFFFFFF DUP3 GT OR ISZERO PUSH2 0x2734 JUMPI PUSH2 0x2733 PUSH2 0x26DF JUMP JUMPDEST JUMPDEST DUP1 PUSH1 0x40 MSTORE POP POP POP JUMP JUMPDEST PUSH0 PUSH2 0x2746 PUSH2 0x2524 JUMP JUMPDEST SWAP1 POP PUSH2 0x2752 DUP3 DUP3 PUSH2 0x270C JUMP JUMPDEST SWAP2 SWAP1 POP JUMP JUMPDEST PUSH0 PUSH8 0xFFFFFFFFFFFFFFFF DUP3 GT ISZERO PUSH2 0x2771 JUMPI PUSH2 0x2770 PUSH2 0x26DF JUMP JUMPDEST JUMPDEST PUSH2 0x277A DUP3 PUSH2 0x26CF JUMP JUMPDEST SWAP1 POP PUSH1 0x20 DUP2 ADD SWAP1 POP SWAP2 SWAP1 POP JUMP JUMPDEST DUP3 DUP2 DUP4 CALLDATACOPY PUSH0 DUP4 DUP4 ADD MSTORE POP POP POP JUMP JUMPDEST PUSH0 PUSH2 0x27A7 PUSH2 0x27A2 DUP5 PUSH2 0x2757 JUMP JUMPDEST PUSH2 0x273D JUMP JUMPDEST SWAP1 POP DUP3 DUP2 MSTORE PUSH1 0x20 DUP2 ADD DUP5 DUP5 DUP5 ADD GT ISZERO PUSH2 0x27C3 JUMPI PUSH2 0x27C2 PUSH2 0x26CB JUMP JUMPDEST JUMPDEST PUSH2 0x27CE DUP5 DUP3 DUP6 PUSH2 0x2787 JUMP JUMPDEST POP SWAP4 SWAP3 POP POP POP JUMP JUMPDEST PUSH0 DUP3 PUSH1 0x1F DUP4 ADD SLT PUSH2 0x27EA JUMPI PUSH2 0x27E9 PUSH2 0x2535 JUMP JUMPDEST JUMPDEST DUP2 CALLDATALOAD PUSH2 0x27FA DUP5 DUP3 PUSH1 0x20 DUP7 ADD PUSH2 0x2795 JUMP JUMPDEST SWAP2 POP POP SWAP3 SWAP2 POP POP JUMP JUMPDEST PUSH0 PUSH1 0x20 DUP3 DUP5 SUB SLT ISZERO PUSH2 0x2818 JUMPI PUSH2 0x2817 PUSH2 0x252D JUMP JUMPDEST JUMPDEST PUSH0 DUP3 ADD CALLDATALOAD PUSH8 0xFFFFFFFFFFFFFFFF DUP2 GT ISZERO PUSH2 0x2835 JUMPI PUSH2 0x2834 PUSH2 0x2531 JUMP JUMPDEST JUMPDEST PUSH2 0x2841 DUP5 DUP3 DUP6 ADD PUSH2 0x27D6 JUMP JUMPDEST SWAP2 POP POP SWAP3 SWAP2 POP POP JUMP JUMPDEST PUSH2 0x2853 DUP2 PUSH2 0x25B5 JUMP JUMPDEST DUP3 MSTORE POP POP JUMP JUMPDEST PUSH0 PUSH1 0x20 DUP3 ADD SWAP1 POP PUSH2 0x286C PUSH0 DUP4 ADD DUP5 PUSH2 0x284A JUMP JUMPDEST SWAP3 SWAP2 POP POP JUMP JUMPDEST PUSH0 PUSH0 PUSH1 0x40 DUP4 DUP6 SUB SLT ISZERO PUSH2 0x2888 JUMPI PUSH2 0x2887 PUSH2 0x252D JUMP JUMPDEST JUMPDEST PUSH0 DUP4 ADD CALLDATALOAD PUSH8 0xFFFFFFFFFFFFFFFF DUP2 GT ISZERO PUSH2 0x28A5 JUMPI PUSH2 0x28A4 PUSH2 0x2531 JUMP JUMPDEST JUMPDEST PUSH2 0x28B1 DUP6 DUP3 DUP7 ADD PUSH2 0x27D6 JUMP JUMPDEST SWAP3 POP POP PUSH1 0x20 PUSH2 0x28C2 DUP6 DUP3 DUP7 ADD PUSH2 0x25DC JUMP JUMPDEST SWAP2 POP POP SWAP3 POP SWAP3 SWAP1 POP JUMP JUMPDEST PUSH0 DUP2 ISZERO ISZERO SWAP1 POP SWAP2 SWAP1 POP JUMP JUMPDEST PUSH2 0x28E0 DUP2 PUSH2 0x28CC JUMP JUMPDEST DUP3 MSTORE POP POP JUMP JUMPDEST PUSH0 PUSH1 0x20 DUP3 ADD SWAP1 POP PUSH2 0x28F9 PUSH0 DUP4 ADD DUP5 PUSH2 0x28D7 JUMP JUMPDEST SWAP3 SWAP2 POP POP JUMP JUMPDEST PUSH1 0x4 DUP2 LT PUSH2 0x290B JUMPI PUSH0 PUSH0 REVERT JUMPDEST POP JUMP JUMPDEST PUSH0 DUP2 CALLDATALOAD SWAP1 POP PUSH2 0x291C DUP2 PUSH2 0x28FF JUMP JUMPDEST SWAP3 SWAP2 POP POP JUMP JUMPDEST PUSH0 PUSH0 PUSH1 0x40 DUP4 DUP6 SUB SLT ISZERO PUSH2 0x2938 JUMPI PUSH2 0x2937 PUSH2 0x252D JUMP JUMPDEST JUMPDEST PUSH0 PUSH2 0x2945 DUP6 DUP3 DUP7 ADD PUSH2 0x25DC JUMP JUMPDEST SWAP3 POP POP PUSH1 0x20 PUSH2 0x2956 DUP6 DUP3 DUP7 ADD PUSH2 0x290E JUMP JUMPDEST SWAP2 POP POP SWAP3 POP SWAP3 SWAP1 POP JUMP JUMPDEST PUSH0 PUSH0 PUSH1 0x20 DUP4 DUP6 SUB SLT ISZERO PUSH2 0x2976 JUMPI PUSH2 0x2975 PUSH2 0x252D JUMP JUMPDEST JUMPDEST PUSH0 DUP4 ADD CALLDATALOAD PUSH8 0xFFFFFFFFFFFFFFFF DUP2 GT ISZERO PUSH2 0x2993 JUMPI PUSH2 0x2992 PUSH2 0x2531 JUMP JUMPDEST JUMPDEST PUSH2 0x299F DUP6 DUP3 DUP7 ADD PUSH2 0x2541 JUMP JUMPDEST SWAP3 POP SWAP3 POP POP SWAP3 POP SWAP3 SWAP1 POP JUMP JUMPDEST PUSH0 DUP2 MLOAD SWAP1 POP SWAP2 SWAP1 POP JUMP JUMPDEST PUSH0 DUP3 DUP3 MSTORE PUSH1 0x20 DUP3 ADD SWAP1 POP SWAP3 SWAP2 POP POP JUMP JUMPDEST DUP3 DUP2 DUP4 MCOPY PUSH0 DUP4 DUP4 ADD MSTORE POP POP POP JUMP JUMPDEST PUSH0 PUSH2 0x29DD DUP3 PUSH2 0x29AB JUMP JUMPDEST PUSH2 0x29E7 DUP2 DUP6 PUSH2 0x29B5 JUMP JUMPDEST SWAP4 POP PUSH2 0x29F7 DUP2 DUP6 PUSH1 0x20 DUP7 ADD PUSH2 0x29C5 JUMP JUMPDEST PUSH2 0x2A00 DUP2 PUSH2 0x26CF JUMP JUMPDEST DUP5 ADD SWAP2 POP POP SWAP3 SWAP2 POP POP JUMP JUMPDEST PUSH32 0x4E487B7100000000000000000000000000000000000000000000000000000000 PUSH0 MSTORE PUSH1 0x21 PUSH1 0x4 MSTORE PUSH1 0x24 PUSH0 REVERT JUMPDEST PUSH1 0x4 DUP2 LT PUSH2 0x2A49 JUMPI PUSH2 0x2A48 PUSH2 0x2A0B JUMP JUMPDEST JUMPDEST POP JUMP JUMPDEST PUSH0 DUP2 SWAP1 POP PUSH2 0x2A59 DUP3 PUSH2 0x2A38 JUMP JUMPDEST SWAP2 SWAP1 POP JUMP JUMPDEST PUSH0 PUSH2 0x2A68 DUP3 PUSH2 0x2A4C JUMP JUMPDEST SWAP1 POP SWAP2 SWAP1 POP JUMP JUMPDEST PUSH2 0x2A78 DUP2 PUSH2 0x2A5E JUMP JUMPDEST DUP3 MSTORE POP POP JUMP JUMPDEST PUSH1 0x3 DUP2 LT PUSH2 0x2A8F JUMPI PUSH2 0x2A8E PUSH2 0x2A0B JUMP JUMPDEST JUMPDEST POP JUMP JUMPDEST PUSH0 DUP2 SWAP1 POP PUSH2 0x2A9F DUP3 PUSH2 0x2A7E JUMP JUMPDEST SWAP2 SWAP1 POP JUMP JUMPDEST PUSH0 PUSH2 0x2AAE DUP3 PUSH2 0x2A92 JUMP JUMPDEST SWAP1 POP SWAP2 SWAP1 POP JUMP JUMPDEST PUSH2 0x2ABE DUP2 PUSH2 0x2AA4 JUMP JUMPDEST DUP3 MSTORE POP POP JUMP JUMPDEST PUSH0 PUSH1 0x80 DUP3 ADD SWAP1 POP DUP2 DUP2 SUB PUSH0 DUP4 ADD MSTORE PUSH2 0x2ADC DUP2 DUP8 PUSH2 0x29D3 JUMP JUMPDEST SWAP1 POP PUSH2 0x2AEB PUSH1 0x20 DUP4 ADD DUP7 PUSH2 0x284A JUMP JUMPDEST PUSH2 0x2AF8 PUSH1 0x40 DUP4 ADD DUP6 PUSH2 0x2A6F JUMP JUMPDEST PUSH2 0x2B05 PUSH1 0x60 DUP4 ADD DUP5 PUSH2 0x2AB5 JUMP JUMPDEST SWAP6 SWAP5 POP POP POP POP POP JUMP JUMPDEST PUSH0 PUSH1 0x20 DUP3 DUP5 SUB SLT ISZERO PUSH2 0x2B23 JUMPI PUSH2 0x2B22 PUSH2 0x252D JUMP JUMPDEST JUMPDEST PUSH0 PUSH2 0x2B30 DUP5 DUP3 DUP6 ADD PUSH2 0x25DC JUMP JUMPDEST SWAP2 POP POP SWAP3 SWAP2 POP POP JUMP JUMPDEST PUSH0 PUSH1 0x20 DUP3 ADD SWAP1 POP PUSH2 0x2B4C PUSH0 DUP4 ADD DUP5 PUSH2 0x2A6F JUMP JUMPDEST SWAP3 SWAP2 POP POP JUMP JUMPDEST PUSH0 DUP2 MLOAD SWAP1 POP SWAP2 SWAP1 POP JUMP JUMPDEST PUSH0 DUP3 DUP3 MSTORE PUSH1 0x20 DUP3 ADD SWAP1 POP SWAP3 SWAP2 POP POP JUMP JUMPDEST PUSH0 DUP2 SWAP1 POP PUSH1 0x20 DUP3 ADD SWAP1 POP SWAP2 SWAP1 POP JUMP JUMPDEST PUSH0 DUP2 SWAP1 POP SWAP2 SWAP1 POP JUMP JUMPDEST PUSH2 0x2B8D DUP2 PUSH2 0x2B7B JUMP JUMPDEST DUP3 MSTORE POP POP JUMP JUMPDEST PUSH2 0x2B9C DUP2 PUSH2 0x25B5 JUMP JUMPDEST DUP3 MSTORE POP POP JUMP JUMPDEST PUSH0 DUP3 DUP3 MSTORE PUSH1 0x20 DUP3 ADD SWAP1 POP SWAP3 SWAP2 POP POP JUMP JUMPDEST PUSH0 PUSH2 0x2BBC DUP3 PUSH2 0x29AB JUMP JUMPDEST PUSH2 0x2BC6 DUP2 DUP6 PUSH2 0x2BA2 JUMP JUMPDEST SWAP4 POP PUSH2 0x2BD6 DUP2 DUP6 PUSH1 0x20 DUP7 ADD PUSH2 0x29C5 JUMP JUMPDEST PUSH2 0x2BDF DUP2 PUSH2 0x26CF JUMP JUMPDEST DUP5 ADD SWAP2 POP POP SWAP3 SWAP2 POP POP JUMP JUMPDEST PUSH0 PUSH1 0x80 DUP4 ADD PUSH0 DUP4 ADD MLOAD PUSH2 0x2BFF PUSH0 DUP7 ADD DUP3 PUSH2 0x2B84 JUMP JUMPDEST POP PUSH1 0x20 DUP4 ADD MLOAD PUSH2 0x2C12 PUSH1 0x20 DUP7 ADD DUP3 PUSH2 0x2B93 JUMP JUMPDEST POP PUSH1 0x40 DUP4 ADD MLOAD DUP5 DUP3 SUB PUSH1 0x40 DUP7 ADD MSTORE PUSH2 0x2C2A DUP3 DUP3 PUSH2 0x2BB2 JUMP JUMPDEST SWAP2 POP POP PUSH1 0x60 DUP4 ADD MLOAD DUP5 DUP3 SUB PUSH1 0x60 DUP7 ADD MSTORE PUSH2 0x2C44 DUP3 DUP3 PUSH2 0x2BB2 JUMP JUMPDEST SWAP2 POP POP DUP1 SWAP2 POP POP SWAP3 SWAP2 POP POP JUMP JUMPDEST PUSH0 PUSH2 0x2C5C DUP4 DUP4 PUSH2 0x2BEA JUMP JUMPDEST SWAP1 POP SWAP3 SWAP2 POP POP JUMP JUMPDEST PUSH0 PUSH1 0x20 DUP3 ADD SWAP1 POP SWAP2 SWAP1 POP JUMP JUMPDEST PUSH0 PUSH2 0x2C7A DUP3 PUSH2 0x2B52 JUMP JUMPDEST PUSH2 0x2C84 DUP2 DUP6 PUSH2 0x2B5C JUMP JUMPDEST SWAP4 POP DUP4 PUSH1 0x20 DUP3 MUL DUP6 ADD PUSH2 0x2C96 DUP6 PUSH2 0x2B6C JUMP JUMPDEST DUP1 PUSH0 JUMPDEST DUP6 DUP2 LT ISZERO PUSH2 0x2CD1 JUMPI DUP5 DUP5 SUB DUP10 MSTORE DUP2 MLOAD PUSH2 0x2CB2 DUP6 DUP3 PUSH2 0x2C51 JUMP JUMPDEST SWAP5 POP PUSH2 0x2CBD DUP4 PUSH2 0x2C64 JUMP JUMPDEST SWAP3 POP PUSH1 0x20 DUP11 ADD SWAP10 POP POP PUSH1 0x1 DUP2 ADD SWAP1 POP PUSH2 0x2C99 JUMP JUMPDEST POP DUP3 SWAP8 POP DUP8 SWAP6 POP POP POP POP POP POP SWAP3 SWAP2 POP POP JUMP JUMPDEST PUSH0 PUSH1 0x20 DUP3 ADD SWAP1 POP DUP2 DUP2 SUB PUSH0 DUP4 ADD MSTORE PUSH2 0x2CFB DUP2 DUP5 PUSH2 0x2C70 JUMP JUMPDEST SWAP1 POP SWAP3 SWAP2 POP POP JUMP JUMPDEST PUSH0 DUP2 SWAP1 POP SWAP3 SWAP2 POP POP JUMP JUMPDEST PUSH0 PUSH2 0x2D17 DUP3 PUSH2 0x29AB JUMP JUMPDEST PUSH2 0x2D21 DUP2 DUP6 PUSH2 0x2D03 JUMP JUMPDEST SWAP4 POP PUSH2 0x2D31 DUP2 DUP6 PUSH1 0x20 DUP7 ADD PUSH2 0x29C5 JUMP JUMPDEST DUP1 DUP5 ADD SWAP2 POP POP SWAP3 SWAP2 POP POP JUMP JUMPDEST PUSH0 PUSH2 0x2D48 DUP3 DUP5 PUSH2 0x2D0D JUMP JUMPDEST SWAP2 POP DUP2 SWAP1 POP SWAP3 SWAP2 POP POP JUMP JUMPDEST PUSH32 0x70726F64756374206E6F7420666F756E64000000000000000000000000000000 PUSH0 DUP3 ADD MSTORE POP JUMP JUMPDEST PUSH0 PUSH2 0x2D87 PUSH1 0x11 DUP4 PUSH2 0x29B5 JUMP JUMPDEST SWAP2 POP PUSH2 0x2D92 DUP3 PUSH2 0x2D53 JUMP JUMPDEST PUSH1 0x20 DUP3 ADD SWAP1 POP SWAP2 SWAP1 POP JUMP JUMPDEST PUSH0 PUSH1 0x20 DUP3 ADD SWAP1 POP DUP2 DUP2 SUB PUSH0 DUP4 ADD MSTORE PUSH2 0x2DB4 DUP2 PUSH2 0x2D7B JUMP JUMPDEST SWAP1 POP SWAP2 SWAP1 POP JUMP JUMPDEST PUSH0 PUSH2 0x2DC6 DUP4 DUP6 PUSH2 0x2D03 JUMP JUMPDEST SWAP4 POP PUSH2 0x2DD3 DUP4 DUP6 DUP5 PUSH2 0x2787 JUMP JUMPDEST DUP3 DUP5 ADD SWAP1 POP SWAP4 SWAP3 POP POP POP JUMP JUMPDEST PUSH0 PUSH2 0x2DEB DUP3 DUP5 DUP7 PUSH2 0x2DBB JUMP JUMPDEST SWAP2 POP DUP2 SWAP1 POP SWAP4 SWAP3 POP POP POP JUMP JUMPDEST PUSH32 0x6F6E6C792061646D696E206F72206F776E657200000000000000000000000000 PUSH0 DUP3 ADD MSTORE POP JUMP JUMPDEST PUSH0 PUSH2 0x2E2B PUSH1 0x13 DUP4 PUSH2 0x29B5 JUMP JUMPDEST SWAP2 POP PUSH2 0x2E36 DUP3 PUSH2 0x2DF7 JUMP JUMPDEST PUSH1 0x20 DUP3 ADD SWAP1 POP SWAP2 SWAP1 POP JUMP JUMPDEST PUSH0 PUSH1 0x20 DUP3 ADD SWAP1 POP DUP2 DUP2 SUB PUSH0 DUP4 ADD MSTORE PUSH2 0x2E58 DUP2 PUSH2 0x2E1F JUMP JUMPDEST SWAP1 POP SWAP2 SWAP1 POP JUMP JUMPDEST PUSH32 0x6F6E6C79206F776E657200000000000000000000000000000000000000000000 PUSH0 DUP3 ADD MSTORE POP JUMP JUMPDEST PUSH0 PUSH2 0x2E93 PUSH1 0xA DUP4 PUSH2 0x29B5 JUMP JUMPDEST SWAP2 POP PUSH2 0x2E9E DUP3 PUSH2 0x2E5F JUMP JUMPDEST PUSH1 0x20 DUP3 ADD SWAP1 POP SWAP2 SWAP1 POP JUMP JUMPDEST PUSH0 PUSH1 0x20 DUP3 ADD SWAP1 POP DUP2 DUP2 SUB PUSH0 DUP4 ADD MSTORE PUSH2 0x2EC0 DUP2 PUSH2 0x2E87 JUMP JUMPDEST SWAP1 POP SWAP2 SWAP1 POP JUMP JUMPDEST PUSH32 0x4E487B7100000000000000000000000000000000000000000000000000000000 PUSH0 MSTORE PUSH1 0x22 PUSH1 0x4 MSTORE PUSH1 0x24 PUSH0 REVERT JUMPDEST PUSH0 PUSH1 0x2 DUP3 DIV SWAP1 POP PUSH1 0x1 DUP3 AND DUP1 PUSH2 0x2F0B JUMPI PUSH1 0x7F DUP3 AND SWAP2 POP JUMPDEST PUSH1 0x20 DUP3 LT DUP2 SUB PUSH2 0x2F1E JUMPI PUSH2 0x2F1D PUSH2 0x2EC7 JUMP JUMPDEST JUMPDEST POP SWAP2 SWAP1 POP JUMP JUMPDEST PUSH0 DUP2 SWAP1 POP DUP2 PUSH0 MSTORE PUSH1 0x20 PUSH0 KECCAK256 SWAP1 POP SWAP2 SWAP1 POP JUMP JUMPDEST PUSH0 PUSH1 0x20 PUSH1 0x1F DUP4 ADD DIV SWAP1 POP SWAP2 SWAP1 POP JUMP JUMPDEST PUSH0 DUP3 DUP3 SHL SWAP1 POP SWAP3 SWAP2 POP POP JUMP JUMPDEST PUSH0 PUSH1 0x8 DUP4 MUL PUSH2 0x2F80 PUSH32 0xFFFFFFFFFFFFFFFFFFFFFFFFFFFFFFFFFFFFFFFFFFFFFFFFFFFFFFFFFFFFFFFF DUP3 PUSH2 0x2F45 JUMP JUMPDEST PUSH2 0x2F8A DUP7 DUP4 PUSH2 0x2F45 JUMP JUMPDEST SWAP6 POP DUP1 NOT DUP5 AND SWAP4 POP DUP1 DUP7 AND DUP5 OR SWAP3 POP POP POP SWAP4 SWAP3 POP POP POP JUMP JUMPDEST PUSH0 DUP2 SWAP1 POP SWAP2 SWAP1 POP JUMP JUMPDEST PUSH0 PUSH2 0x2FC5 PUSH2 0x2FC0 PUSH2 0x2FBB DUP5 PUSH2 0x2B7B JUMP JUMPDEST PUSH2 0x2FA2 JUMP JUMPDEST PUSH2 0x2B7B JUMP JUMPDEST SWAP1 POP SWAP2 SWAP1 POP JUMP JUMPDEST PUSH0 DUP2 SWAP1 POP SWAP2 SWAP1 POP JUMP JUMPDEST PUSH2 0x2FDE DUP4 PUSH2 0x2FAB JUMP JUMPDEST PUSH2 0x2FF2 PUSH2 0x2FEA DUP3 PUSH2 0x2FCC JUMP JUMPDEST DUP5 DUP5 SLOAD PUSH2 0x2F51 JUMP JUMPDEST DUP3 SSTORE POP POP POP POP JUMP JUMPDEST PUSH0 PUSH0 SWAP1 POP SWAP1 JUMP JUMPDEST PUSH2 0x3009 PUSH2 0x2FFA JUMP JUMPDEST PUSH2 0x3014 DUP2 DUP5 DUP5 PUSH2 0x2FD5 JUMP JUMPDEST POP POP POP JUMP JUMPDEST JUMPDEST DUP2 DUP2 LT ISZERO PUSH2 0x3037 JUMPI PUSH2 0x302C PUSH0 DUP3 PUSH2 0x3001 JUMP JUMPDEST PUSH1 0x1 DUP2 ADD SWAP1 POP PUSH2 0x301A JUMP JUMPDEST POP POP JUMP JUMPDEST PUSH1 0x1F DUP3 GT ISZERO PUSH2 0x307C JUMPI PUSH2 0x304D DUP2 PUSH2 0x2F24 JUMP JUMPDEST PUSH2 0x3056 DUP5 PUSH2 0x2F36 JUMP JUMPDEST DUP2 ADD PUSH1 0x20 DUP6 LT ISZERO PUSH2 0x3065 JUMPI DUP2 SWAP1 POP JUMPDEST PUSH2 0x3079 PUSH2 0x3071 DUP6 PUSH2 0x2F36 JUMP JUMPDEST DUP4 ADD DUP3 PUSH2 0x3019 JUMP JUMPDEST POP POP JUMPDEST POP POP POP JUMP JUMPDEST PUSH0 DUP3 DUP3 SHR SWAP1 POP SWAP3 SWAP2 POP POP JUMP JUMPDEST PUSH0 PUSH2 0x309C PUSH0 NOT DUP5 PUSH1 0x8 MUL PUSH2 0x3081 JUMP JUMPDEST NOT DUP1 DUP4 AND SWAP2 POP POP SWAP3 SWAP2 POP POP JUMP JUMPDEST PUSH0 PUSH2 0x30B4 DUP4 DUP4 PUSH2 0x308D JUMP JUMPDEST SWAP2 POP DUP3 PUSH1 0x2 MUL DUP3 OR SWAP1 POP SWAP3 SWAP2 POP POP JUMP JUMPDEST PUSH2 0x30CD DUP3 PUSH2 0x29AB JUMP JUMPDEST PUSH8 0xFFFFFFFFFFFFFFFF DUP2 GT ISZERO PUSH2 0x30E6 JUMPI PUSH2 0x30E5 PUSH2 0x26DF JUMP JUMPDEST JUMPDEST PUSH2 0x30F0 DUP3 SLOAD PUSH2 0x2EF4 JUMP JUMPDEST PUSH2 0x30FB DUP3 DUP3 DUP6 PUSH2 0x303B JUMP JUMPDEST PUSH0 PUSH1 0x20 SWAP1 POP PUSH1 0x1F DUP4 GT PUSH1 0x1 DUP2 EQ PUSH2 0x312C JUMPI PUSH0 DUP5 ISZERO PUSH2 0x311A JUMPI DUP3 DUP8 ADD MLOAD SWAP1 POP JUMPDEST PUSH2 0x3124 DUP6 DUP3 PUSH2 0x30A9 JUMP JUMPDEST DUP7 SSTORE POP PUSH2 0x318B JUMP JUMPDEST PUSH1 0x1F NOT DUP5 AND PUSH2 0x313A DUP7 PUSH2 0x2F24 JUMP JUMPDEST PUSH0 JUMPDEST DUP3 DUP2 LT ISZERO PUSH2 0x3161 JUMPI DUP5 DUP10 ADD MLOAD DUP3 SSTORE PUSH1 0x1 DUP3 ADD SWAP2 POP PUSH1 0x20 DUP6 ADD SWAP5 POP PUSH1 0x20 DUP2 ADD SWAP1 POP PUSH2 0x313C JUMP JUMPDEST DUP7 DUP4 LT ISZERO PUSH2 0x317E JUMPI DUP5 DUP10 ADD MLOAD PUSH2 0x317A PUSH1 0x1F DUP10 AND DUP3 PUSH2 0x308D JUMP JUMPDEST DUP4 SSTORE POP JUMPDEST PUSH1 0x1 PUSH1 0x2 DUP9 MUL ADD DUP9 SSTORE POP POP POP JUMPDEST POP POP POP POP POP POP JUMP JUMPDEST PUSH32 0x6F6E6C792061646D696E00000000000000000000000000000000000000000000 PUSH0 DUP3 ADD MSTORE POP JUMP JUMPDEST PUSH0 PUSH2 0x31C7 PUSH1 0xA DUP4 PUSH2 0x29B5 JUMP JUMPDEST SWAP2 POP PUSH2 0x31D2 DUP3 PUSH2 0x3193 JUMP JUMPDEST PUSH1 0x20 DUP3 ADD SWAP1 POP SWAP2 SWAP1 POP JUMP JUMPDEST PUSH0 PUSH1 0x20 DUP3 ADD SWAP1 POP DUP2 DUP2 SUB PUSH0 DUP4 ADD MSTORE PUSH2 0x31F4 DUP2 PUSH2 0x31BB JUMP JUMPDEST SWAP1 POP SWAP2 SWAP1 POP JUMP JUMPDEST PUSH32 0x6E6F2070656E64696E67207472616E7366657220746F20796F75000000000000 PUSH0 DUP3 ADD MSTORE POP JUMP JUMPDEST PUSH0 PUSH2 0x322F PUSH1 0x1A DUP4 PUSH2 0x29B5 JUMP JUMPDEST SWAP2 POP PUSH2 0x323A DUP3 PUSH2 0x31FB JUMP JUMPDEST PUSH1 0x20 DUP3 ADD SWAP1 POP SWAP2 SWAP1 POP JUMP JUMPDEST PUSH0 PUSH1 0x20 DUP3 ADD SWAP1 POP DUP2 DUP2 SUB PUSH0 DUP4 ADD MSTORE PUSH2 0x325C DUP2 PUSH2 0x3223 JUMP JUMPDEST SWAP1 POP SWAP2 SWAP1 POP JUMP JUMPDEST PUSH32 0x6F6E6C79206F776E65722063616E20696E697469617465207472616E73666572 PUSH0 DUP3 ADD MSTORE POP JUMP JUMPDEST PUSH0 PUSH2 0x3297 PUSH1 0x20 DUP4 PUSH2 0x29B5 JUMP JUMPDEST SWAP2 POP PUSH2 0x32A2 DUP3 PUSH2 0x3263 JUMP JUMPDEST PUSH1 0x20 DUP3 ADD SWAP1 POP SWAP2 SWAP1 POP JUMP JUMPDEST PUSH0 PUSH1 0x20 DUP3 ADD SWAP1 POP DUP2 DUP2 SUB PUSH0 DUP4 ADD MSTORE PUSH2 0x32C4 DUP2 PUSH2 0x328B JUMP JUMPDEST SWAP1 POP SWAP2 SWAP1 POP JUMP JUMPDEST PUSH32 0x696E76616C696420726563697069656E74000000000000000000000000000000 PUSH0 DUP3 ADD MSTORE POP JUMP JUMPDEST PUSH0 PUSH2 0x32FF PUSH1 0x11 DUP4 PUSH2 0x29B5 JUMP JUMPDEST SWAP2 POP PUSH2 0x330A DUP3 PUSH2 0x32CB JUMP JUMPDEST PUSH1 0x20 DUP3 ADD SWAP1 POP SWAP2 SWAP1 POP JUMP JUMPDEST PUSH0 PUSH1 0x20 DUP3 ADD SWAP1 POP DUP2 DUP2 SUB PUSH0 DUP4 ADD MSTORE PUSH2 0x332C DUP2 PUSH2 0x32F3 JUMP JUMPDEST SWAP1 POP SWAP2 SWAP1 POP JUMP JUMPDEST PUSH32 0x756E617574686F72697A656420726F6C65000000000000000000000000000000 PUSH0 DUP3 ADD MSTORE POP JUMP JUMPDEST PUSH0 PUSH2 0x3367 PUSH1 0x11 DUP4 PUSH2 0x29B5 JUMP JUMPDEST SWAP2 POP PUSH2 0x3372 DUP3 PUSH2 0x3333 JUMP JUMPDEST PUSH1 0x20 DUP3 ADD SWAP1 POP SWAP2 SWAP1 POP JUMP JUMPDEST PUSH0 PUSH1 0x20 DUP3 ADD SWAP1 POP DUP2 DUP2 SUB PUSH0 DUP4 ADD MSTORE PUSH2 0x3394 DUP2 PUSH2 0x335B JUMP JUMPDEST SWAP1 POP SWAP2 SWAP1 POP JUMP JUMPDEST PUSH32 0x616C726561647920657869737473000000000000000000000000000000000000 PUSH0 DUP3 ADD MSTORE POP JUMP JUMPDEST PUSH0 PUSH2 0x33CF PUSH1 0xE DUP4 PUSH2 0x29B5 JUMP JUMPDEST SWAP2 POP PUSH2 0x33DA DUP3 PUSH2 0x339B JUMP JUMPDEST PUSH1 0x20 DUP3 ADD SWAP1 POP SWAP2 SWAP1 POP JUMP JUMPDEST PUSH0 PUSH1 0x20 DUP3 ADD SWAP1 POP DUP2 DUP2 SUB PUSH0 DUP4 ADD MSTORE PUSH2 0x33FC DUP2 PUSH2 0x33C3 JUMP JUMPDEST SWAP1 POP SWAP2 SWAP1 POP JUMP JUMPDEST PUSH0 DUP3 SWAP1 POP SWAP3 SWAP2 POP POP JUMP JUMPDEST PUSH2 0x3417 DUP4 DUP4 PUSH2 0x3403 JUMP JUMPDEST PUSH8 0xFFFFFFFFFFFFFFFF DUP2 GT ISZERO PUSH2 0x3430 JUMPI PUSH2 0x342F PUSH2 0x26DF JUMP JUMPDEST JUMPDEST PUSH2 0x343A DUP3 SLOAD PUSH2 0x2EF4 JUMP JUMPDEST PUSH2 0x3445 DUP3 DUP3 DUP6 PUSH2 0x303B JUMP JUMPDEST PUSH0 PUSH1 0x1F DUP4 GT PUSH1 0x1 DUP2 EQ PUSH2 0x3472 JUMPI PUSH0 DUP5 ISZERO PUSH2 0x3460 JUMPI DUP3 DUP8 ADD CALLDATALOAD SWAP1 POP JUMPDEST PUSH2 0x346A DUP6 DUP3 PUSH2 0x30A9 JUMP JUMPDEST DUP7 SSTORE POP PUSH2 0x34D1 JUMP JUMPDEST PUSH1 0x1F NOT DUP5 AND PUSH2 0x3480 DUP7 PUSH2 0x2F24 JUMP JUMPDEST PUSH0 JUMPDEST DUP3 DUP2 LT ISZERO PUSH2 0x34A7 JUMPI DUP5 DUP10 ADD CALLDATALOAD DUP3 SSTORE PUSH1 0x1 DUP3 ADD SWAP2 POP PUSH1 0x20 DUP6 ADD SWAP5 POP PUSH1 0x20 DUP2 ADD SWAP1 POP PUSH2 0x3482 JUMP JUMPDEST DUP7 DUP4 LT ISZERO PUSH2 0x34C4 JUMPI DUP5 DUP10 ADD CALLDATALOAD PUSH2 0x34C0 PUSH1 0x1F DUP10 AND DUP3 PUSH2 0x308D JUMP JUMPDEST DUP4 SSTORE POP JUMPDEST PUSH1 0x1 PUSH1 0x2 DUP9 MUL ADD DUP9 SSTORE POP POP POP JUMPDEST POP POP POP POP POP POP POP JUMP JUMPDEST PUSH32 0x6F6E6C79206F776E65722063616E206D61726B20726563656976656400000000 PUSH0 DUP3 ADD MSTORE POP JUMP JUMPDEST PUSH0 PUSH2 0x350E PUSH1 0x1C DUP4 PUSH2 0x29B5 JUMP JUMPDEST SWAP2 POP PUSH2 0x3519 DUP3 PUSH2 0x34DA JUMP JUMPDEST PUSH1 0x20 DUP3 ADD SWAP1 POP SWAP2 SWAP1 POP JUMP JUMPDEST PUSH0 PUSH1 0x20 DUP3 ADD SWAP1 POP DUP2 DUP2 SUB PUSH0 DUP4 ADD MSTORE PUSH2 0x353B DUP2 PUSH2 0x3502 JUMP JUMPDEST SWAP1 POP SWAP2 SWAP1 POP JUMP JUMPDEST PUSH32 0x6E6F2076696577207065726D697373696F6E20666F7220746869732070726F64 PUSH0 DUP3 ADD MSTORE PUSH32 0x7563740000000000000000000000000000000000000000000000000000000000 PUSH1 0x20 DUP3 ADD MSTORE POP JUMP JUMPDEST PUSH0 PUSH2 0x359C PUSH1 0x23 DUP4 PUSH2 0x29B5 JUMP JUMPDEST SWAP2 POP PUSH2 0x35A7 DUP3 PUSH2 0x3542 JUMP JUMPDEST PUSH1 0x40 DUP3 ADD SWAP1 POP SWAP2 SWAP1 POP JUMP JUMPDEST PUSH0 PUSH1 0x20 DUP3 ADD SWAP1 POP DUP2 DUP2 SUB PUSH0 DUP4 ADD MSTORE PUSH2 0x35C9 DUP2 PUSH2 0x3590 JUMP JUMPDEST SWAP1 POP SWAP2 SWAP1 POP JUMP JUMPDEST PUSH32 0x4E487B7100000000000000000000000000000000000000000000000000000000 PUSH0 MSTORE PUSH1 0x32 PUSH1 0x4 MSTORE PUSH1 0x24 PUSH0 REVERT JUMPDEST PUSH32 0x4E487B7100000000000000000000000000000000000000000000000000000000 PUSH0 MSTORE PUSH1 0x11 PUSH1 0x4 MSTORE PUSH1 0x24 PUSH0 REVERT JUMPDEST PUSH0 PUSH2 0x3634 DUP3 PUSH2 0x2B7B JUMP JUMPDEST SWAP2 POP PUSH2 0x363F DUP4 PUSH2 0x2B7B JUMP JUMPDEST SWAP3 POP DUP3 DUP3 MUL PUSH2 0x364D DUP2 PUSH2 0x2B7B JUMP JUMPDEST SWAP2 POP DUP3 DUP3 DIV DUP5 EQ DUP4 ISZERO OR PUSH2 0x3664 JUMPI PUSH2 0x3663 PUSH2 0x35FD JUMP JUMPDEST JUMPDEST POP SWAP3 SWAP2 POP POP JUMP JUMPDEST PUSH0 PUSH2 0x3675 DUP3 PUSH2 0x2B7B JUMP JUMPDEST SWAP2 POP PUSH2 0x3680 DUP4 PUSH2 0x2B7B JUMP JUMPDEST SWAP3 POP DUP3 DUP3 ADD SWAP1 POP DUP1 DUP3 GT ISZERO PUSH2 0x3698 JUMPI PUSH2 0x3697 PUSH2 0x35FD JUMP JUMPDEST JUMPDEST SWAP3 SWAP2 POP POP JUMP INVALID LOG2 PUSH5 0x6970667358 0x22 SLT KECCAK256 0xE RETURN PUSH7 0x7954BA1F8F4AB1 RETURNDATASIZE SWAP5 STATICCALL GASPRICE CREATE 0xC9 SWAP2 PUSH14 0x4C309045B587EADA468C57FC7238 PUSH5 0x736F6C6343 STOP ADDMOD 0x1E STOP CALLER "
		},
		"gasEstimates": {
			"creation": {
				"codeDepositCost": "2807200",
				"executionCost": "51707",
				"totalCost": "2858907"
			},
			"external": {
				"acceptTransfer(string)": "infinite",
				"addNote(string,string)": "infinite",
				"admin()": "2596",
				"assignRole(address,uint8)": "27164",
				"createProduct(string,string)": "infinite",
				"getProductHistory(string)": "infinite",
				"getProductSummary(string)": "infinite",
				"grantView(string,address)": "infinite",
				"initiateTransfer(string,address)": "infinite",
				"markReceived(string)": "infinite",
				"pendingRecipient(string)": "infinite",
				"revokeRole(address)": "27013",
				"revokeView(string,address)": "infinite",
				"roles(address)": "2942",
				"viewPermissions(string,address)": "infinite"
			},
			"internal": {
				"_addrToString(address)": "infinite"
			}
		},
		"methodIdentifiers": {
			"acceptTransfer(string)": "6d136f62",
			"addNote(string,string)": "2fdccd0b",
			"admin()": "f851a440",
			"assignRole(address,uint8)": "630a195b",
			"createProduct(string,string)": "87592bce",
			"getProductHistory(string)": "d4f50453",
			"getProductSummary(string)": "6b696666",
			"grantView(string,address)": "0c2094cc",
			"initiateTransfer(string,address)": "842af60d",
			"markReceived(string)": "c0a6dda3",
			"pendingRecipient(string)": "4c8dbcb9",
			"revokeRole(address)": "80e52e3f",
			"revokeView(string,address)": "96ed6107",
			"roles(address)": "99374642",
			"viewPermissions(string,address)": "57d8894f"
		}
	},
	"abi": [
		{
			"inputs": [],
			"stateMutability": "nonpayable",
			"type": "constructor"
		},
		{
			"anonymous": false,
			"inputs": [
				{
					"indexed": true,
					"internalType": "string",
					"name": "productId",
					"type": "string"
				},
				{
					"indexed": true,
					"internalType": "address",
					"name": "viewer",
					"type": "address"
				}
			],
			"name": "AccessGranted",
			"type": "event"
		},
		{
			"anonymous": false,
			"inputs": [
				{
					"indexed": true,
					"internalType": "string",
					"name": "productId",
					"type": "string"
				},
				{
					"indexed": true,
					"internalType": "address",
					"name": "viewer",
					"type": "address"
				}
			],
			"name": "AccessRevoked",
			"type": "event"
		},
		{
			"anonymous": false,
			"inputs": [
				{
					"indexed": true,
					"internalType": "string",
					"name": "productId",
					"type": "string"
				},
				{
					"indexed": true,
					"internalType": "address",
					"name": "manufacturer",
					"type": "address"
				}
			],
			"name": "ProductCreated",
			"type": "event"
		},
		{
			"anonymous": false,
			"inputs": [
				{
					"indexed": true,
					"internalType": "string",
					"name": "productId",
					"type": "string"
				},
				{
					"indexed": true,
					"internalType": "address",
					"name": "receiver",
					"type": "address"
				}
			],
			"name": "ProductReceived",
			"type": "event"
		},
		{
			"anonymous": false,
			"inputs": [
				{
					"indexed": true,
					"internalType": "string",
					"name": "productId",
					"type": "string"
				},
				{
					"indexed": true,
					"internalType": "address",
					"name": "accepter",
					"type": "address"
				}
			],
			"name": "TransferAccepted",
			"type": "event"
		},
		{
			"anonymous": false,
			"inputs": [
				{
					"indexed": true,
					"internalType": "string",
					"name": "productId",
					"type": "string"
				},
				{
					"indexed": true,
					"internalType": "address",
					"name": "from",
					"type": "address"
				},
				{
					"indexed": true,
					"internalType": "address",
					"name": "to",
					"type": "address"
				}
			],
			"name": "TransferInitiated",
			"type": "event"
		},
		{
			"inputs": [
				{
					"internalType": "string",
					"name": "productId",
					"type": "string"
				}
			],
			"name": "acceptTransfer",
			"outputs": [],
			"stateMutability": "nonpayable",
			"type": "function"
		},
		{
			"inputs": [
				{
					"internalType": "string",
					"name": "productId",
					"type": "string"
				},
				{
					"internalType": "string",
					"name": "note",
					"type": "string"
				}
			],
			"name": "addNote",
			"outputs": [],
			"stateMutability": "nonpayable",
			"type": "function"
		},
		{
			"inputs": [],
			"name": "admin",
			"outputs": [
				{
					"internalType": "address",
					"name": "",
					"type": "address"
				}
			],
			"stateMutability": "view",
			"type": "function"
		},
		{
			"inputs": [
				{
					"internalType": "address",
					"name": "account",
					"type": "address"
				},
				{
					"internalType": "enum SupplyChain.Role",
					"name": "r",
					"type": "uint8"
				}
			],
			"name": "assignRole",
			"outputs": [],
			"stateMutability": "nonpayable",
			"type": "function"
		},
		{
			"inputs": [
				{
					"internalType": "string",
					"name": "productId",
					"type": "string"
				},
				{
					"internalType": "string",
					"name": "metadata",
					"type": "string"
				}
			],
			"name": "createProduct",
			"outputs": [],
			"stateMutability": "nonpayable",
			"type": "function"
		},
		{
			"inputs": [
				{
					"internalType": "string",
					"name": "productId",
					"type": "string"
				}
			],
			"name": "getProductHistory",
			"outputs": [
				{
					"components": [
						{
							"internalType": "uint256",
							"name": "timestamp",
							"type": "uint256"
						},
						{
							"internalType": "address",
							"name": "actor",
							"type": "address"
						},
						{
							"internalType": "string",
							"name": "action",
							"type": "string"
						},
						{
							"internalType": "string",
							"name": "metadata",
							"type": "string"
						}
					],
					"internalType": "struct SupplyChain.EventEntry[]",
					"name": "",
					"type": "tuple[]"
				}
			],
			"stateMutability": "view",
			"type": "function"
		},
		{
			"inputs": [
				{
					"internalType": "string",
					"name": "productId",
					"type": "string"
				}
			],
			"name": "getProductSummary",
			"outputs": [
				{
					"internalType": "string",
					"name": "id",
					"type": "string"
				},
				{
					"internalType": "address",
					"name": "ownerAddr",
					"type": "address"
				},
				{
					"internalType": "enum SupplyChain.Role",
					"name": "ownerR",
					"type": "uint8"
				},
				{
					"internalType": "enum SupplyChain.Status",
					"name": "stat",
					"type": "uint8"
				}
			],
			"stateMutability": "view",
			"type": "function"
		},
		{
			"inputs": [
				{
					"internalType": "string",
					"name": "productId",
					"type": "string"
				},
				{
					"internalType": "address",
					"name": "viewer",
					"type": "address"
				}
			],
			"name": "grantView",
			"outputs": [],
			"stateMutability": "nonpayable",
			"type": "function"
		},
		{
			"inputs": [
				{
					"internalType": "string",
					"name": "productId",
					"type": "string"
				},
				{
					"internalType": "address",
					"name": "to",
					"type": "address"
				}
			],
			"name": "initiateTransfer",
			"outputs": [],
			"stateMutability": "nonpayable",
			"type": "function"
		},
		{
			"inputs": [
				{
					"internalType": "string",
					"name": "productId",
					"type": "string"
				}
			],
			"name": "markReceived",
			"outputs": [],
			"stateMutability": "nonpayable",
			"type": "function"
		},
		{
			"inputs": [
				{
					"internalType": "string",
					"name": "",
					"type": "string"
				}
			],
			"name": "pendingRecipient",
			"outputs": [
				{
					"internalType": "address",
					"name": "",
					"type": "address"
				}
			],
			"stateMutability": "view",
			"type": "function"
		},
		{
			"inputs": [
				{
					"internalType": "address",
					"name": "account",
					"type": "address"
				}
			],
			"name": "revokeRole",
			"outputs": [],
			"stateMutability": "nonpayable",
			"type": "function"
		},
		{
			"inputs": [
				{
					"internalType": "string",
					"name": "productId",
					"type": "string"
				},
				{
					"internalType": "address",
					"name": "viewer",
					"type": "address"
				}
			],
			"name": "revokeView",
			"outputs": [],
			"stateMutability": "nonpayable",
			"type": "function"
		},
		{
			"inputs": [
				{
					"internalType": "address",
					"name": "",
					"type": "address"
				}
			],
			"name": "roles",
			"outputs": [
				{
					"internalType": "enum SupplyChain.Role",
					"name": "",
					"type": "uint8"
				}
			],
			"stateMutability": "view",
			"type": "function"
		},
		{
			"inputs": [
				{
					"internalType": "string",
					"name": "",
					"type": "string"
				},
				{
					"internalType": "address",
					"name": "",
					"type": "address"
				}
			],
			"name": "viewPermissions",
			"outputs": [
				{
					"internalType": "bool",
					"name": "",
					"type": "bool"
				}
			],
			"stateMutability": "view",
			"type": "function"
		}
	]
}