{
	"data": {
		"bytecode": {
			"linkReferences": {},
			"object": "6080604052348015600e575f5ffd5b506108688061001c5f395ff3fe608060405260043610610042575f3560e01c806327e235e31461004d5780632e1a7d4d14610089578063d0e30db0146100b1578063f8b2cb4f146100bb57610049565b3661004957005b5f5ffd5b348015610058575f5ffd5b50610073600480360381019061006e91906104ef565b6100f7565b6040516100809190610532565b60405180910390f35b348015610094575f5ffd5b506100af60048036038101906100aa9190610575565b61010b565b005b6100b961032a565b005b3480156100c6575f5ffd5b506100e160048036038101906100dc91906104ef565b61044c565b6040516100ee9190610532565b60405180910390f35b5f602052805f5260405f205f915090505481565b805f5f3373ffffffffffffffffffffffffffffffffffffffff1673ffffffffffffffffffffffffffffffffffffffff1681526020019081526020015f2054101561018a576040517f08c379a0000000000000000000000000000000000000000000000000000000008152600401610181906105fa565b60405180910390fd5b3373ffffffffffffffffffffffffffffffffffffffff167f2f34a921cfa01e02cbf89199be3e6a59311988db4a1179dc1a33408a1af43d2e82476040516101d2929190610618565b60405180910390a25f3373ffffffffffffffffffffffffffffffffffffffff16826040516101ff9061066c565b5f6040518083038185875af1925050503d805f8114610239576040519150601f19603f3d011682016040523d82523d5f602084013e61023e565b606091505b505090503373ffffffffffffffffffffffffffffffffffffffff167f854cd46343ba1194bc4533236bf88bdcec8118903951e00c70cc53d20414985483834760405161028c9392919061069a565b60405180910390a2806102d4576040517f08c379a00000000000000000000000000000000000000000000000000000000081526004016102cb90610719565b60405180910390fd5b815f5f3373ffffffffffffffffffffffffffffffffffffffff1673ffffffffffffffffffffffffffffffffffffffff1681526020019081526020015f205f82825461031f9190610764565b925050819055505050565b5f341161036c576040517f08c379a0000000000000000000000000000000000000000000000000000000008152600401610363906107e1565b60405180910390fd5b345f5f3373ffffffffffffffffffffffffffffffffffffffff1673ffffffffffffffffffffffffffffffffffffffff1681526020019081526020015f205f8282546103b791906107ff565b925050819055503373ffffffffffffffffffffffffffffffffffffffff167f73a19dd210f1a7f902193214c0ee91dd35ee5b4d920cba8d519eca65a7b488ca345f5f3373ffffffffffffffffffffffffffffffffffffffff1673ffffffffffffffffffffffffffffffffffffffff1681526020019081526020015f2054604051610442929190610618565b60405180910390a2565b5f5f5f8373ffffffffffffffffffffffffffffffffffffffff1673ffffffffffffffffffffffffffffffffffffffff1681526020019081526020015f20549050919050565b5f5ffd5b5f73ffffffffffffffffffffffffffffffffffffffff82169050919050565b5f6104be82610495565b9050919050565b6104ce816104b4565b81146104d8575f5ffd5b50565b5f813590506104e9816104c5565b92915050565b5f6020828403121561050457610503610491565b5b5f610511848285016104db565b91505092915050565b5f819050919050565b61052c8161051a565b82525050565b5f6020820190506105455f830184610523565b92915050565b6105548161051a565b811461055e575f5ffd5b50565b5f8135905061056f8161054b565b92915050565b5f6020828403121561058a57610589610491565b5b5f61059784828501610561565b91505092915050565b5f82825260208201905092915050565b7f696e73756666696369656e742062616c616e63650000000000000000000000005f82015250565b5f6105e46014836105a0565b91506105ef826105b0565b602082019050919050565b5f6020820190508181035f830152610611816105d8565b9050919050565b5f60408201905061062b5f830185610523565b6106386020830184610523565b9392505050565b5f81905092915050565b50565b5f6106575f8361063f565b915061066282610649565b5f82019050919050565b5f6106768261064c565b9150819050919050565b5f8115159050919050565b61069481610680565b82525050565b5f6060820190506106ad5f830186610523565b6106ba602083018561068b565b6106c76040830184610523565b949350505050565b7f7472616e73666572206661696c656400000000000000000000000000000000005f82015250565b5f610703600f836105a0565b915061070e826106cf565b602082019050919050565b5f6020820190508181035f830152610730816106f7565b9050919050565b7f4e487b71000000000000000000000000000000000000000000000000000000005f52601160045260245ffd5b5f61076e8261051a565b91506107798361051a565b925082820390508181111561079157610790610737565b5b92915050565b7f6e6f2076616c75650000000000000000000000000000000000000000000000005f82015250565b5f6107cb6008836105a0565b91506107d682610797565b602082019050919050565b5f6020820190508181035f8301526107f8816107bf565b9050919050565b5f6108098261051a565b91506108148361051a565b925082820190508082111561082c5761082b610737565b5b9291505056fea264697066735822122007c4592482dfa13abff339e39980b27aefa3c3f0da116d28e962a0ef8badcb3564736f6c634300081e0033",
			"opcodes": "PUSH1 0x80 PUSH1 0x40 MSTORE CALLVALUE DUP1 ISZERO PUSH1 0xE JUMPI PUSH0 PUSH0 REVERT JUMPDEST POP PUSH2 0x868 DUP1 PUSH2 0x1C PUSH0 CODECOPY PUSH0 RETURN INVALID PUSH1 0x80 PUSH1 0x40 MSTORE PUSH1 0x4 CALLDATASIZE LT PUSH2 0x42 JUMPI PUSH0 CALLDATALOAD PUSH1 0xE0 SHR DUP1 PUSH4 0x27E235E3 EQ PUSH2 0x4D JUMPI DUP1 PUSH4 0x2E1A7D4D EQ PUSH2 0x89 JUMPI DUP1 PUSH4 0xD0E30DB0 EQ PUSH2 0xB1 JUMPI DUP1 PUSH4 0xF8B2CB4F EQ PUSH2 0xBB JUMPI PUSH2 0x49 JUMP JUMPDEST CALLDATASIZE PUSH2 0x49 JUMPI STOP JUMPDEST PUSH0 PUSH0 REVERT JUMPDEST CALLVALUE DUP1 ISZERO PUSH2 0x58 JUMPI PUSH0 PUSH0 REVERT JUMPDEST POP PUSH2 0x73 PUSH1 0x4 DUP1 CALLDATASIZE SUB DUP2 ADD SWAP1 PUSH2 0x6E SWAP2 SWAP1 PUSH2 0x4EF JUMP JUMPDEST PUSH2 0xF7 JUMP JUMPDEST PUSH1 0x40 MLOAD PUSH2 0x80 SWAP2 SWAP1 PUSH2 0x532 JUMP JUMPDEST PUSH1 0x40 MLOAD DUP1 SWAP2 SUB SWAP1 RETURN JUMPDEST CALLVALUE DUP1 ISZERO PUSH2 0x94 JUMPI PUSH0 PUSH0 REVERT JUMPDEST POP PUSH2 0xAF PUSH1 0x4 DUP1 CALLDATASIZE SUB DUP2 ADD SWAP1 PUSH2 0xAA SWAP2 SWAP1 PUSH2 0x575 JUMP JUMPDEST PUSH2 0x10B JUMP JUMPDEST STOP JUMPDEST PUSH2 0xB9 PUSH2 0x32A JUMP JUMPDEST STOP JUMPDEST CALLVALUE DUP1 ISZERO PUSH2 0xC6 JUMPI PUSH0 PUSH0 REVERT JUMPDEST POP PUSH2 0xE1 PUSH1 0x4 DUP1 CALLDATASIZE SUB DUP2 ADD SWAP1 PUSH2 0xDC SWAP2 SWAP1 PUSH2 0x4EF JUMP JUMPDEST PUSH2 0x44C JUMP JUMPDEST PUSH1 0x40 MLOAD PUSH2 0xEE SWAP2 SWAP1 PUSH2 0x532 JUMP JUMPDEST PUSH1 0x40 MLOAD DUP1 SWAP2 SUB SWAP1 RETURN JUMPDEST PUSH0 PUSH1 0x20 MSTORE DUP1 PUSH0 MSTORE PUSH1 0x40 PUSH0 KECCAK256 PUSH0 SWAP2 POP SWAP1 POP SLOAD DUP2 JUMP JUMPDEST DUP1 PUSH0 PUSH0 CALLER PUSH20 0xFFFFFFFFFFFFFFFFFFFFFFFFFFFFFFFFFFFFFFFF AND PUSH20 0xFFFFFFFFFFFFFFFFFFFFFFFFFFFFFFFFFFFFFFFF AND DUP2 MSTORE PUSH1 0x20 ADD SWAP1 DUP2 MSTORE PUSH1 0x20 ADD PUSH0 KECCAK256 SLOAD LT ISZERO PUSH2 0x18A JUMPI PUSH1 0x40 MLOAD PUSH32 0x8C379A000000000000000000000000000000000000000000000000000000000 DUP2 MSTORE PUSH1 0x4 ADD PUSH2 0x181 SWAP1 PUSH2 0x5FA JUMP JUMPDEST PUSH1 0x40 MLOAD DUP1 SWAP2 SUB SWAP1 REVERT JUMPDEST CALLER PUSH20 0xFFFFFFFFFFFFFFFFFFFFFFFFFFFFFFFFFFFFFFFF AND PUSH32 0x2F34A921CFA01E02CBF89199BE3E6A59311988DB4A1179DC1A33408A1AF43D2E DUP3 SELFBALANCE PUSH1 0x40 MLOAD PUSH2 0x1D2 SWAP3 SWAP2 SWAP1 PUSH2 0x618 JUMP JUMPDEST PUSH1 0x40 MLOAD DUP1 SWAP2 SUB SWAP1 LOG2 PUSH0 CALLER PUSH20 0xFFFFFFFFFFFFFFFFFFFFFFFFFFFFFFFFFFFFFFFF AND DUP3 PUSH1 0x40 MLOAD PUSH2 0x1FF SWAP1 PUSH2 0x66C JUMP JUMPDEST PUSH0 PUSH1 0x40 MLOAD DUP1 DUP4 SUB DUP2 DUP6 DUP8 GAS CALL SWAP3 POP POP POP RETURNDATASIZE DUP1 PUSH0 DUP2 EQ PUSH2 0x239 JUMPI PUSH1 0x40 MLOAD SWAP2 POP PUSH1 0x1F NOT PUSH1 0x3F RETURNDATASIZE ADD AND DUP3 ADD PUSH1 0x40 MSTORE RETURNDATASIZE DUP3 MSTORE RETURNDATASIZE PUSH0 PUSH1 0x20 DUP5 ADD RETURNDATACOPY PUSH2 0x23E JUMP JUMPDEST PUSH1 0x60 SWAP2 POP JUMPDEST POP POP SWAP1 POP CALLER PUSH20 0xFFFFFFFFFFFFFFFFFFFFFFFFFFFFFFFFFFFFFFFF AND PUSH32 0x854CD46343BA1194BC4533236BF88BDCEC8118903951E00C70CC53D204149854 DUP4 DUP4 SELFBALANCE PUSH1 0x40 MLOAD PUSH2 0x28C SWAP4 SWAP3 SWAP2 SWAP1 PUSH2 0x69A JUMP JUMPDEST PUSH1 0x40 MLOAD DUP1 SWAP2 SUB SWAP1 LOG2 DUP1 PUSH2 0x2D4 JUMPI PUSH1 0x40 MLOAD PUSH32 0x8C379A000000000000000000000000000000000000000000000000000000000 DUP2 MSTORE PUSH1 0x4 ADD PUSH2 0x2CB SWAP1 PUSH2 0x719 JUMP JUMPDEST PUSH1 0x40 MLOAD DUP1 SWAP2 SUB SWAP1 REVERT JUMPDEST DUP2 PUSH0 PUSH0 CALLER PUSH20 0xFFFFFFFFFFFFFFFFFFFFFFFFFFFFFFFFFFFFFFFF AND PUSH20 0xFFFFFFFFFFFFFFFFFFFFFFFFFFFFFFFFFFFFFFFF AND DUP2 MSTORE PUSH1 0x20 ADD SWAP1 DUP2 MSTORE PUSH1 0x20 ADD PUSH0 KECCAK256 PUSH0 DUP3 DUP3 SLOAD PUSH2 0x31F SWAP2 SWAP1 PUSH2 0x764 JUMP JUMPDEST SWAP3 POP POP DUP2 SWAP1 SSTORE POP POP POP JUMP JUMPDEST PUSH0 CALLVALUE GT PUSH2 0x36C JUMPI PUSH1 0x40 MLOAD PUSH32 0x8C379A000000000000000000000000000000000000000000000000000000000 DUP2 MSTORE PUSH1 0x4 ADD PUSH2 0x363 SWAP1 PUSH2 0x7E1 JUMP JUMPDEST PUSH1 0x40 MLOAD DUP1 SWAP2 SUB SWAP1 REVERT JUMPDEST CALLVALUE PUSH0 PUSH0 CALLER PUSH20 0xFFFFFFFFFFFFFFFFFFFFFFFFFFFFFFFFFFFFFFFF AND PUSH20 0xFFFFFFFFFFFFFFFFFFFFFFFFFFFFFFFFFFFFFFFF AND DUP2 MSTORE PUSH1 0x20 ADD SWAP1 DUP2 MSTORE PUSH1 0x20 ADD PUSH0 KECCAK256 PUSH0 DUP3 DUP3 SLOAD PUSH2 0x3B7 SWAP2 SWAP1 PUSH2 0x7FF JUMP JUMPDEST SWAP3 POP POP DUP2 SWAP1 SSTORE POP CALLER PUSH20 0xFFFFFFFFFFFFFFFFFFFFFFFFFFFFFFFFFFFFFFFF AND PUSH32 0x73A19DD210F1A7F902193214C0EE91DD35EE5B4D920CBA8D519ECA65A7B488CA CALLVALUE PUSH0 PUSH0 CALLER PUSH20 0xFFFFFFFFFFFFFFFFFFFFFFFFFFFFFFFFFFFFFFFF AND PUSH20 0xFFFFFFFFFFFFFFFFFFFFFFFFFFFFFFFFFFFFFFFF AND DUP2 MSTORE PUSH1 0x20 ADD SWAP1 DUP2 MSTORE PUSH1 0x20 ADD PUSH0 KECCAK256 SLOAD PUSH1 0x40 MLOAD PUSH2 0x442 SWAP3 SWAP2 SWAP1 PUSH2 0x618 JUMP JUMPDEST PUSH1 0x40 MLOAD DUP1 SWAP2 SUB SWAP1 LOG2 JUMP JUMPDEST PUSH0 PUSH0 PUSH0 DUP4 PUSH20 0xFFFFFFFFFFFFFFFFFFFFFFFFFFFFFFFFFFFFFFFF AND PUSH20 0xFFFFFFFFFFFFFFFFFFFFFFFFFFFFFFFFFFFFFFFF AND DUP2 MSTORE PUSH1 0x20 ADD SWAP1 DUP2 MSTORE PUSH1 0x20 ADD PUSH0 KECCAK256 SLOAD SWAP1 POP SWAP2 SWAP1 POP JUMP JUMPDEST PUSH0 PUSH0 REVERT JUMPDEST PUSH0 PUSH20 0xFFFFFFFFFFFFFFFFFFFFFFFFFFFFFFFFFFFFFFFF DUP3 AND SWAP1 POP SWAP2 SWAP1 POP JUMP JUMPDEST PUSH0 PUSH2 0x4BE DUP3 PUSH2 0x495 JUMP JUMPDEST SWAP1 POP SWAP2 SWAP1 POP JUMP JUMPDEST PUSH2 0x4CE DUP2 PUSH2 0x4B4 JUMP JUMPDEST DUP2 EQ PUSH2 0x4D8 JUMPI PUSH0 PUSH0 REVERT JUMPDEST POP JUMP JUMPDEST PUSH0 DUP2 CALLDATALOAD SWAP1 POP PUSH2 0x4E9 DUP2 PUSH2 0x4C5 JUMP JUMPDEST SWAP3 SWAP2 POP POP JUMP JUMPDEST PUSH0 PUSH1 0x20 DUP3 DUP5 SUB SLT ISZERO PUSH2 0x504 JUMPI PUSH2 0x503 PUSH2 0x491 JUMP JUMPDEST JUMPDEST PUSH0 PUSH2 0x511 DUP5 DUP3 DUP6 ADD PUSH2 0x4DB JUMP JUMPDEST SWAP2 POP POP SWAP3 SWAP2 POP POP JUMP JUMPDEST PUSH0 DUP2 SWAP1 POP SWAP2 SWAP1 POP JUMP JUMPDEST PUSH2 0x52C DUP2 PUSH2 0x51A JUMP JUMPDEST DUP3 MSTORE POP POP JUMP JUMPDEST PUSH0 PUSH1 0x20 DUP3 ADD SWAP1 POP PUSH2 0x545 PUSH0 DUP4 ADD DUP5 PUSH2 0x523 JUMP JUMPDEST SWAP3 SWAP2 POP POP JUMP JUMPDEST PUSH2 0x554 DUP2 PUSH2 0x51A JUMP JUMPDEST DUP2 EQ PUSH2 0x55E JUMPI PUSH0 PUSH0 REVERT JUMPDEST POP JUMP JUMPDEST PUSH0 DUP2 CALLDATALOAD SWAP1 POP PUSH2 0x56F DUP2 PUSH2 0x54B JUMP JUMPDEST SWAP3 SWAP2 POP POP JUMP JUMPDEST PUSH0 PUSH1 0x20 DUP3 DUP5 SUB SLT ISZERO PUSH2 0x58A JUMPI PUSH2 0x589 PUSH2 0x491 JUMP JUMPDEST JUMPDEST PUSH0 PUSH2 0x597 DUP5 DUP3 DUP6 ADD PUSH2 0x561 JUMP JUMPDEST SWAP2 POP POP SWAP3 SWAP2 POP POP JUMP JUMPDEST PUSH0 DUP3 DUP3 MSTORE PUSH1 0x20 DUP3 ADD SWAP1 POP SWAP3 SWAP2 POP POP JUMP JUMPDEST PUSH32 0x696E73756666696369656E742062616C616E6365000000000000000000000000 PUSH0 DUP3 ADD MSTORE POP JUMP JUMPDEST PUSH0 PUSH2 0x5E4 PUSH1 0x14 DUP4 PUSH2 0x5A0 JUMP JUMPDEST SWAP2 POP PUSH2 0x5EF DUP3 PUSH2 0x5B0 JUMP JUMPDEST PUSH1 0x20 DUP3 ADD SWAP1 POP SWAP2 SWAP1 POP JUMP JUMPDEST PUSH0 PUSH1 0x20 DUP3 ADD SWAP1 POP DUP2 DUP2 SUB PUSH0 DUP4 ADD MSTORE PUSH2 0x611 DUP2 PUSH2 0x5D8 JUMP JUMPDEST SWAP1 POP SWAP2 SWAP1 POP JUMP JUMPDEST PUSH0 PUSH1 0x40 DUP3 ADD SWAP1 POP PUSH2 0x62B PUSH0 DUP4 ADD DUP6 PUSH2 0x523 JUMP JUMPDEST PUSH2 0x638 PUSH1 0x20 DUP4 ADD DUP5 PUSH2 0x523 JUMP JUMPDEST SWAP4 SWAP3 POP POP POP JUMP JUMPDEST PUSH0 DUP2 SWAP1 POP SWAP3 SWAP2 POP POP JUMP JUMPDEST POP JUMP JUMPDEST PUSH0 PUSH2 0x657 PUSH0 DUP4 PUSH2 0x63F JUMP JUMPDEST SWAP2 POP PUSH2 0x662 DUP3 PUSH2 0x649 JUMP JUMPDEST PUSH0 DUP3 ADD SWAP1 POP SWAP2 SWAP1 POP JUMP JUMPDEST PUSH0 PUSH2 0x676 DUP3 PUSH2 0x64C JUMP JUMPDEST SWAP2 POP DUP2 SWAP1 POP SWAP2 SWAP1 POP JUMP JUMPDEST PUSH0 DUP2 ISZERO ISZERO SWAP1 POP SWAP2 SWAP1 POP JUMP JUMPDEST PUSH2 0x694 DUP2 PUSH2 0x680 JUMP JUMPDEST DUP3 MSTORE POP POP JUMP JUMPDEST PUSH0 PUSH1 0x60 DUP3 ADD SWAP1 POP PUSH2 0x6AD PUSH0 DUP4 ADD DUP7 PUSH2 0x523 JUMP JUMPDEST PUSH2 0x6BA PUSH1 0x20 DUP4 ADD DUP6 PUSH2 0x68B JUMP JUMPDEST PUSH2 0x6C7 PUSH1 0x40 DUP4 ADD DUP5 PUSH2 0x523 JUMP JUMPDEST SWAP5 SWAP4 POP POP POP POP JUMP JUMPDEST PUSH32 0x7472616E73666572206661696C65640000000000000000000000000000000000 PUSH0 DUP3 ADD MSTORE POP JUMP JUMPDEST PUSH0 PUSH2 0x703 PUSH1 0xF DUP4 PUSH2 0x5A0 JUMP JUMPDEST SWAP2 POP PUSH2 0x70E DUP3 PUSH2 0x6CF JUMP JUMPDEST PUSH1 0x20 DUP3 ADD SWAP1 POP SWAP2 SWAP1 POP JUMP JUMPDEST PUSH0 PUSH1 0x20 DUP3 ADD SWAP1 POP DUP2 DUP2 SUB PUSH0 DUP4 ADD MSTORE PUSH2 0x730 DUP2 PUSH2 0x6F7 JUMP JUMPDEST SWAP1 POP SWAP2 SWAP1 POP JUMP JUMPDEST PUSH32 0x4E487B7100000000000000000000000000000000000000000000000000000000 PUSH0 MSTORE PUSH1 0x11 PUSH1 0x4 MSTORE PUSH1 0x24 PUSH0 REVERT JUMPDEST PUSH0 PUSH2 0x76E DUP3 PUSH2 0x51A JUMP JUMPDEST SWAP2 POP PUSH2 0x779 DUP4 PUSH2 0x51A JUMP JUMPDEST SWAP3 POP DUP3 DUP3 SUB SWAP1 POP DUP2 DUP2 GT ISZERO PUSH2 0x791 JUMPI PUSH2 0x790 PUSH2 0x737 JUMP JUMPDEST JUMPDEST SWAP3 SWAP2 POP POP JUMP JUMPDEST PUSH32 0x6E6F2076616C7565000000000000000000000000000000000000000000000000 PUSH0 DUP3 ADD MSTORE POP JUMP JUMPDEST PUSH0 PUSH2 0x7CB PUSH1 0x8 DUP4 PUSH2 0x5A0 JUMP JUMPDEST SWAP2 POP PUSH2 0x7D6 DUP3 PUSH2 0x797 JUMP JUMPDEST PUSH1 0x20 DUP3 ADD SWAP1 POP SWAP2 SWAP1 POP JUMP JUMPDEST PUSH0 PUSH1 0x20 DUP3 ADD SWAP1 POP DUP2 DUP2 SUB PUSH0 DUP4 ADD MSTORE PUSH2 0x7F8 DUP2 PUSH2 0x7BF JUMP JUMPDEST SWAP1 POP SWAP2 SWAP1 POP JUMP JUMPDEST PUSH0 PUSH2 0x809 DUP3 PUSH2 0x51A JUMP JUMPDEST SWAP2 POP PUSH2 0x814 DUP4 PUSH2 0x51A JUMP JUMPDEST SWAP3 POP DUP3 DUP3 ADD SWAP1 POP DUP1 DUP3 GT ISZERO PUSH2 0x82C JUMPI PUSH2 0x82B PUSH2 0x737 JUMP JUMPDEST JUMPDEST SWAP3 SWAP2 POP POP JUMP INVALID LOG2 PUSH5 0x6970667358 0x22 SLT KECCAK256 SMOD 0xC4 MSIZE 0x24 DUP3 0xDF LOG1 GASPRICE 0xBF RETURN CODECOPY CALLF 0x9980 0xB2 PUSH27 0xEFA3C3F0DA116D28E962A0EF8BADCB3564736F6C634300081E0033 "
		},
		"gasEstimates": {
			"creation": {
				"codeDepositCost": "430400",
				"executionCost": "466",
				"totalCost": "430866"
			},
			"external": {
				"balances(address)": "2779",
				"deposit()": "infinite",
				"getBalance(address)": "2872",
				"withdraw(uint256)": "infinite"
			}
		},
		"methodIdentifiers": {
			"balances(address)": "27e235e3",
			"deposit()": "d0e30db0",
			"getBalance(address)": "f8b2cb4f",
			"withdraw(uint256)": "2e1a7d4d"
		}
	},
	"abi": [
		{
			"anonymous": false,
			"inputs": [
				{
					"indexed": true,
					"internalType": "address",
					"name": "user",
					"type": "address"
				},
				{
					"indexed": false,
					"internalType": "uint256",
					"name": "amount",
					"type": "uint256"
				},
				{
					"indexed": false,
					"internalType": "uint256",
					"name": "newBalance",
					"type": "uint256"
				}
			],
			"name": "Deposited",
			"type": "event"
		},
		{
			"anonymous": false,
			"inputs": [
				{
					"indexed": true,
					"internalType": "address",
					"name": "to",
					"type": "address"
				},
				{
					"indexed": false,
					"internalType": "uint256",
					"name": "amount",
					"type": "uint256"
				},
				{
					"indexed": false,
					"internalType": "bool",
					"name": "success",
					"type": "bool"
				},
				{
					"indexed": false,
					"internalType": "uint256",
					"name": "contractBalanceAfter",
					"type": "uint256"
				}
			],
			"name": "SentTo",
			"type": "event"
		},
		{
			"anonymous": false,
			"inputs": [
				{
					"indexed": true,
					"internalType": "address",
					"name": "user",
					"type": "address"
				},
				{
					"indexed": false,
					"internalType": "uint256",
					"name": "amount",
					"type": "uint256"
				},
				{
					"indexed": false,
					"internalType": "uint256",
					"name": "contractBalanceBefore",
					"type": "uint256"
				}
			],
			"name": "Withdrawing",
			"type": "event"
		},
		{
			"inputs": [
				{
					"internalType": "address",
					"name": "",
					"type": "address"
				}
			],
			"name": "balances",
			"outputs": [
				{
					"internalType": "uint256",
					"name": "",
					"type": "uint256"
				}
			],
			"stateMutability": "view",
			"type": "function"
		},
		{
			"inputs": [],
			"name": "deposit",
			"outputs": [],
			"stateMutability": "payable",
			"type": "function"
		},
		{
			"inputs": [
				{
					"internalType": "address",
					"name": "user",
					"type": "address"
				}
			],
			"name": "getBalance",
			"outputs": [
				{
					"internalType": "uint256",
					"name": "",
					"type": "uint256"
				}
			],
			"stateMutability": "view",
			"type": "function"
		},
		{
			"inputs": [
				{
					"internalType": "uint256",
					"name": "amount",
					"type": "uint256"
				}
			],
			"name": "withdraw",
			"outputs": [],
			"stateMutability": "nonpayable",
			"type": "function"
		},
		{
			"stateMutability": "payable",
			"type": "receive"
		}
	]
}